{
  "contracts/CopByAgentRegistry.sol": {
    "CopByAgentRegistry": {
      "abi": [
        {
          "inputs": [
            {
              "internalType": "address",
              "name": "copm_",
              "type": "address"
            },
            {
              "internalType": "address",
              "name": "usdt_",
              "type": "address"
            }
          ],
          "stateMutability": "nonpayable",
          "type": "constructor"
        },
        {
          "inputs": [],
          "name": "ActiveSessionExists",
          "type": "error"
        },
        {
          "inputs": [],
          "name": "ExpiredSession",
          "type": "error"
        },
        {
          "inputs": [],
          "name": "IntentAlreadyUsed",
          "type": "error"
        },
        {
          "inputs": [],
          "name": "InvalidAgent",
          "type": "error"
        },
        {
          "inputs": [],
          "name": "InvalidAmount",
          "type": "error"
        },
        {
          "inputs": [],
          "name": "InvalidSession",
          "type": "error"
        },
        {
          "inputs": [],
          "name": "InvalidTokenPair",
          "type": "error"
        },
        {
          "inputs": [],
          "name": "InvalidUser",
          "type": "error"
        },
        {
          "inputs": [],
          "name": "NotSessionParty",
          "type": "error"
        },
        {
          "inputs": [],
          "name": "SameToken",
          "type": "error"
        },
        {
          "inputs": [],
          "name": "ZeroAddress",
          "type": "error"
        },
        {
          "inputs": [],
          "name": "ZeroSessionId",
          "type": "error"
        },
        {
          "anonymous": false,
          "inputs": [
            {
              "indexed": true,
              "internalType": "address",
              "name": "user",
              "type": "address"
            },
            {
              "indexed": true,
              "internalType": "address",
              "name": "agent",
              "type": "address"
            },
            {
              "indexed": true,
              "internalType": "bytes32",
              "name": "sessionId",
              "type": "bytes32"
            }
          ],
          "name": "AgentSessionRevoked",
          "type": "event"
        },
        {
          "anonymous": false,
          "inputs": [
            {
              "indexed": true,
              "internalType": "address",
              "name": "user",
              "type": "address"
            },
            {
              "indexed": true,
              "internalType": "address",
              "name": "agent",
              "type": "address"
            },
            {
              "indexed": true,
              "internalType": "bytes32",
              "name": "sessionId",
              "type": "bytes32"
            },
            {
              "indexed": false,
              "internalType": "uint64",
              "name": "expiresAt",
              "type": "uint64"
            }
          ],
          "name": "AgentSessionStarted",
          "type": "event"
        },
        {
          "anonymous": false,
          "inputs": [
            {
              "indexed": true,
              "internalType": "address",
              "name": "user",
              "type": "address"
            },
            {
              "indexed": true,
              "internalType": "address",
              "name": "agent",
              "type": "address"
            },
            {
              "indexed": true,
              "internalType": "bytes32",
              "name": "sessionId",
              "type": "bytes32"
            },
            {
              "indexed": false,
              "internalType": "bytes32",
              "name": "intentId",
              "type": "bytes32"
            },
            {
              "indexed": false,
              "internalType": "address",
              "name": "inputToken",
              "type": "address"
            },
            {
              "indexed": false,
              "internalType": "address",
              "name": "outputToken",
              "type": "address"
            },
            {
              "indexed": false,
              "internalType": "uint256",
              "name": "inputAmount",
              "type": "uint256"
            },
            {
              "indexed": false,
              "internalType": "uint256",
              "name": "outputAmount",
              "type": "uint256"
            },
            {
              "indexed": false,
              "internalType": "uint256",
              "name": "tradeNumber",
              "type": "uint256"
            }
          ],
          "name": "AgentTradeLogged",
          "type": "event"
        },
        {
          "inputs": [],
          "name": "copm",
          "outputs": [
            {
              "internalType": "address",
              "name": "",
              "type": "address"
            }
          ],
          "stateMutability": "view",
          "type": "function"
        },
        {
          "inputs": [
            {
              "internalType": "address",
              "name": "user",
              "type": "address"
            },
            {
              "internalType": "address",
              "name": "agent",
              "type": "address"
            }
          ],
          "name": "isSessionActive",
          "outputs": [
            {
              "internalType": "bool",
              "name": "",
              "type": "bool"
            }
          ],
          "stateMutability": "view",
          "type": "function"
        },
        {
          "inputs": [
            {
              "internalType": "address",
              "name": "user",
              "type": "address"
            },
            {
              "internalType": "address",
              "name": "agent",
              "type": "address"
            },
            {
              "internalType": "bytes32",
              "name": "sessionId",
              "type": "bytes32"
            },
            {
              "internalType": "bytes32",
              "name": "intentId",
              "type": "bytes32"
            },
            {
              "internalType": "address",
              "name": "inputToken",
              "type": "address"
            },
            {
              "internalType": "address",
              "name": "outputToken",
              "type": "address"
            },
            {
              "internalType": "uint256",
              "name": "inputAmount",
              "type": "uint256"
            },
            {
              "internalType": "uint256",
              "name": "outputAmount",
              "type": "uint256"
            }
          ],
          "name": "logAgentTrade",
          "outputs": [
            {
              "internalType": "uint256",
              "name": "tradeNumber",
              "type": "uint256"
            }
          ],
          "stateMutability": "nonpayable",
          "type": "function"
        },
        {
          "inputs": [
            {
              "internalType": "address",
              "name": "user",
              "type": "address"
            }
          ],
          "name": "revokeSession",
          "outputs": [],
          "stateMutability": "nonpayable",
          "type": "function"
        },
        {
          "inputs": [
            {
              "internalType": "address",
              "name": "user",
              "type": "address"
            }
          ],
          "name": "sessions",
          "outputs": [
            {
              "internalType": "address",
              "name": "agent",
              "type": "address"
            },
            {
              "internalType": "uint64",
              "name": "expiresAt",
              "type": "uint64"
            },
            {
              "internalType": "bytes32",
              "name": "sessionId",
              "type": "bytes32"
            }
          ],
          "stateMutability": "view",
          "type": "function"
        },
        {
          "inputs": [
            {
              "internalType": "address",
              "name": "user",
              "type": "address"
            },
            {
              "internalType": "address",
              "name": "agent",
              "type": "address"
            },
            {
              "internalType": "bytes32",
              "name": "sessionId",
              "type": "bytes32"
            },
            {
              "internalType": "uint64",
              "name": "expiresAt",
              "type": "uint64"
            }
          ],
          "name": "startSession",
          "outputs": [],
          "stateMutability": "nonpayable",
          "type": "function"
        },
        {
          "inputs": [],
          "name": "totalTrades",
          "outputs": [
            {
              "internalType": "uint256",
              "name": "",
              "type": "uint256"
            }
          ],
          "stateMutability": "view",
          "type": "function"
        },
        {
          "inputs": [],
          "name": "usdt",
          "outputs": [
            {
              "internalType": "address",
              "name": "",
              "type": "address"
            }
          ],
          "stateMutability": "view",
          "type": "function"
        },
        {
          "inputs": [
            {
              "internalType": "bytes32",
              "name": "intentId",
              "type": "bytes32"
            }
          ],
          "name": "usedIntents",
          "outputs": [
            {
              "internalType": "bool",
              "name": "used",
              "type": "bool"
            }
          ],
          "stateMutability": "view",
          "type": "function"
        }
      ],
      "evm": {
        "bytecode": {
          "linkReferences": {},
          "object": "60c060405234801561001057600080fd5b50604051610ba4380380610ba483398101604081905261002f916100cf565b6001600160a01b038216158061004c57506001600160a01b038116155b1561006a5760405163d92e233d60e01b815260040160405180910390fd5b806001600160a01b0316826001600160a01b03160361009c5760405163100dac0560e11b815260040160405180910390fd5b6001600160a01b039182166080521660a052610102565b80516001600160a01b03811681146100ca57600080fd5b919050565b600080604083850312156100e257600080fd5b6100eb836100b3565b91506100f9602084016100b3565b90509250929050565b60805160a051610a6261014260003960008181610117015281816107f8015261083401526000818160d8015281816107bc01526108700152610a626000f3fe608060405234801561001057600080fd5b50600436106100935760003560e01c8063431a1b9711610066578063431a1b97146101395780636336803b146101ab578063a0cae3c0146101de578063b14bb914146101f1578063e275c9971461020457600080fd5b80630540f98c146100985780631fa5d6a4146100be5780632c3ff7b1146100d35780632f48ab7d14610112575b600080fd5b6100ab6100a63660046108c7565b61020d565b6040519081526020015b60405180910390f35b6100d16100cc366004610942565b61048d565b005b6100fa7f000000000000000000000000000000000000000000000000000000000000000081565b6040516001600160a01b0390911681526020016100b5565b6100fa7f000000000000000000000000000000000000000000000000000000000000000081565b61017d610147366004610942565b600160208190526000918252604090912080549101546001600160a01b03821691600160a01b900467ffffffffffffffff169083565b604080516001600160a01b03909416845267ffffffffffffffff9092166020840152908201526060016100b5565b6101ce6101b936600461095d565b60026020526000908152604090205460ff1681565b60405190151581526020016100b5565b6100d16101ec366004610976565b61059f565b6101ce6101ff3660046109d2565b610743565b6100ab60005481565b60006001600160a01b0389166102365760405163fd684c3b60e01b815260040160405180910390fd5b6001600160a01b03881661025d5760405163bebdc75760e01b815260040160405180910390fd5b8661027b57604051631431024b60e01b815260040160405180910390fd5b8561029957604051631431024b60e01b815260040160405180910390fd5b8215806102a4575081155b156102c25760405163162908e360e11b815260040160405180910390fd5b60008681526002602052604090205460ff16156102f25760405163110ea83560e31b815260040160405180910390fd5b6102fc85856107b8565b61031957604051638686656d60e01b815260040160405180910390fd5b6001600160a01b03898116600090815260016020818152604092839020835160608101855281549586168152600160a01b90950467ffffffffffffffff169185019190915201549082018190528814610385576040516316f78d3b60e11b815260040160405180910390fd5b886001600160a01b031681600001516001600160a01b0316146103bb5760405163bebdc75760e01b815260040160405180910390fd5b42816020015167ffffffffffffffff16116103e957604051639e4c31bb60e01b815260040160405180910390fd5b6000878152600260205260408120805460ff191660011790558054819061040f90610a05565b9182905550604080518981526001600160a01b03898116602083015288811682840152606082018890526080820187905260a0820184905291519294508a928c8316928e16917f3b177429729641f17b70ae70e7d96a0ada47277c71c90cea26d7309fc18e6105919081900360c00190a45098975050505050505050565b6001600160a01b03818116600090815260016020818152604092839020835160608101855281549586168152600160a01b90950467ffffffffffffffff169185019190915201549082018190526104f7576040516316f78d3b60e11b815260040160405180910390fd5b336001600160a01b0383161480159061051a575080516001600160a01b03163314155b1561053857604051630af625f560e01b815260040160405180910390fd5b6001600160a01b03808316600081815260016020819052604080832080546001600160e01b0319168155909101829055848101518551915190949190911692917fb32f7a6d8ef16e1bda5e9c36ed76153bf67fa292311003e5a49d6d02d58ab23b91a45050565b6001600160a01b03841615806105bc57506001600160a01b038316155b156105da5760405163d92e233d60e01b815260040160405180910390fd5b816105f857604051631431024b60e01b815260040160405180910390fd5b428167ffffffffffffffff161161062257604051639e4c31bb60e01b815260040160405180910390fd5b6001600160a01b03848116600090815260016020818152604092839020835160608101855281549586168152600160a01b90950467ffffffffffffffff16918501829052909101549183019190915242101561069157604051633e85256f60e11b815260040160405180910390fd5b604080516060810182526001600160a01b0386811680835267ffffffffffffffff86811660208086018281528688018b81528d871660008181526001808652908b902099518a549451909716600160a01b026001600160e01b0319909416969098169590951791909117875551959094019490945593519283528693909290917fb05b9bcd2e55f87b73de0e4e5385f16a0a02efb4330bedbeb821d07fdf082978910160405180910390a45050505050565b6001600160a01b03828116600090815260016020818152604080842081516060810183528154808816808352600160a01b90910467ffffffffffffffff169482019490945293015490830152919290919084161480156107b0575042816020015167ffffffffffffffff16115b949350505050565b60007f00000000000000000000000000000000000000000000000000000000000000006001600160a01b0316836001600160a01b031614801561082c57507f00000000000000000000000000000000000000000000000000000000000000006001600160a01b0316826001600160a01b0316145b806108a457507f00000000000000000000000000000000000000000000000000000000000000006001600160a01b0316836001600160a01b03161480156108a457507f00000000000000000000000000000000000000000000000000000000000000006001600160a01b0316826001600160a01b0316145b9392505050565b80356001600160a01b03811681146108c257600080fd5b919050565b600080600080600080600080610100898b0312156108e457600080fd5b6108ed896108ab565b97506108fb60208a016108ab565b9650604089013595506060890135945061091760808a016108ab565b935061092560a08a016108ab565b979a969950949793969295929450505060c08201359160e0013590565b60006020828403121561095457600080fd5b6108a4826108ab565b60006020828403121561096f57600080fd5b5035919050565b6000806000806080858703121561098c57600080fd5b610995856108ab565b93506109a3602086016108ab565b925060408501359150606085013567ffffffffffffffff811681146109c757600080fd5b939692955090935050565b600080604083850312156109e557600080fd5b6109ee836108ab565b91506109fc602084016108ab565b90509250929050565b600060018201610a2557634e487b7160e01b600052601160045260246000fd5b506001019056fea2646970667358221220d8f49f398ea6692a69d8ba0579cac2844f9fc232199669b007e10e11700eca3b64736f6c634300081c0033",
          "opcodes": "PUSH1 0xC0 PUSH1 0x40 MSTORE CALLVALUE DUP1 ISZERO PUSH2 0x10 JUMPI PUSH1 0x0 DUP1 REVERT JUMPDEST POP PUSH1 0x40 MLOAD PUSH2 0xBA4 CODESIZE SUB DUP1 PUSH2 0xBA4 DUP4 CODECOPY DUP2 ADD PUSH1 0x40 DUP2 SWAP1 MSTORE PUSH2 0x2F SWAP2 PUSH2 0xCF JUMP JUMPDEST PUSH1 0x1 PUSH1 0x1 PUSH1 0xA0 SHL SUB DUP3 AND ISZERO DUP1 PUSH2 0x4C JUMPI POP PUSH1 0x1 PUSH1 0x1 PUSH1 0xA0 SHL SUB DUP2 AND ISZERO JUMPDEST ISZERO PUSH2 0x6A JUMPI PUSH1 0x40 MLOAD PUSH4 0xD92E233D PUSH1 0xE0 SHL DUP2 MSTORE PUSH1 0x4 ADD PUSH1 0x40 MLOAD DUP1 SWAP2 SUB SWAP1 REVERT JUMPDEST DUP1 PUSH1 0x1 PUSH1 0x1 PUSH1 0xA0 SHL SUB AND DUP3 PUSH1 0x1 PUSH1 0x1 PUSH1 0xA0 SHL SUB AND SUB PUSH2 0x9C JUMPI PUSH1 0x40 MLOAD PUSH4 0x100DAC05 PUSH1 0xE1 SHL DUP2 MSTORE PUSH1 0x4 ADD PUSH1 0x40 MLOAD DUP1 SWAP2 SUB SWAP1 REVERT JUMPDEST PUSH1 0x1 PUSH1 0x1 PUSH1 0xA0 SHL SUB SWAP2 DUP3 AND PUSH1 0x80 MSTORE AND PUSH1 0xA0 MSTORE PUSH2 0x102 JUMP JUMPDEST DUP1 MLOAD PUSH1 0x1 PUSH1 0x1 PUSH1 0xA0 SHL SUB DUP2 AND DUP2 EQ PUSH2 0xCA JUMPI PUSH1 0x0 DUP1 REVERT JUMPDEST SWAP2 SWAP1 POP JUMP JUMPDEST PUSH1 0x0 DUP1 PUSH1 0x40 DUP4 DUP6 SUB SLT ISZERO PUSH2 0xE2 JUMPI PUSH1 0x0 DUP1 REVERT JUMPDEST PUSH2 0xEB DUP4 PUSH2 0xB3 JUMP JUMPDEST SWAP2 POP PUSH2 0xF9 PUSH1 0x20 DUP5 ADD PUSH2 0xB3 JUMP JUMPDEST SWAP1 POP SWAP3 POP SWAP3 SWAP1 POP JUMP JUMPDEST PUSH1 0x80 MLOAD PUSH1 0xA0 MLOAD PUSH2 0xA62 PUSH2 0x142 PUSH1 0x0 CODECOPY PUSH1 0x0 DUP2 DUP2 PUSH2 0x117 ADD MSTORE DUP2 DUP2 PUSH2 0x7F8 ADD MSTORE PUSH2 0x834 ADD MSTORE PUSH1 0x0 DUP2 DUP2 PUSH1 0xD8 ADD MSTORE DUP2 DUP2 PUSH2 0x7BC ADD MSTORE PUSH2 0x870 ADD MSTORE PUSH2 0xA62 PUSH1 0x0 RETURN INVALID PUSH1 0x80 PUSH1 0x40 MSTORE CALLVALUE DUP1 ISZERO PUSH2 0x10 JUMPI PUSH1 0x0 DUP1 REVERT JUMPDEST POP PUSH1 0x4 CALLDATASIZE LT PUSH2 0x93 JUMPI PUSH1 0x0 CALLDATALOAD PUSH1 0xE0 SHR DUP1 PUSH4 0x431A1B97 GT PUSH2 0x66 JUMPI DUP1 PUSH4 0x431A1B97 EQ PUSH2 0x139 JUMPI DUP1 PUSH4 0x6336803B EQ PUSH2 0x1AB JUMPI DUP1 PUSH4 0xA0CAE3C0 EQ PUSH2 0x1DE JUMPI DUP1 PUSH4 0xB14BB914 EQ PUSH2 0x1F1 JUMPI DUP1 PUSH4 0xE275C997 EQ PUSH2 0x204 JUMPI PUSH1 0x0 DUP1 REVERT JUMPDEST DUP1 PUSH4 0x540F98C EQ PUSH2 0x98 JUMPI DUP1 PUSH4 0x1FA5D6A4 EQ PUSH2 0xBE JUMPI DUP1 PUSH4 0x2C3FF7B1 EQ PUSH2 0xD3 JUMPI DUP1 PUSH4 0x2F48AB7D EQ PUSH2 0x112 JUMPI JUMPDEST PUSH1 0x0 DUP1 REVERT JUMPDEST PUSH2 0xAB PUSH2 0xA6 CALLDATASIZE PUSH1 0x4 PUSH2 0x8C7 JUMP JUMPDEST PUSH2 0x20D JUMP JUMPDEST PUSH1 0x40 MLOAD SWAP1 DUP2 MSTORE PUSH1 0x20 ADD JUMPDEST PUSH1 0x40 MLOAD DUP1 SWAP2 SUB SWAP1 RETURN JUMPDEST PUSH2 0xD1 PUSH2 0xCC CALLDATASIZE PUSH1 0x4 PUSH2 0x942 JUMP JUMPDEST PUSH2 0x48D JUMP JUMPDEST STOP JUMPDEST PUSH2 0xFA PUSH32 0x0 DUP2 JUMP JUMPDEST PUSH1 0x40 MLOAD PUSH1 0x1 PUSH1 0x1 PUSH1 0xA0 SHL SUB SWAP1 SWAP2 AND DUP2 MSTORE PUSH1 0x20 ADD PUSH2 0xB5 JUMP JUMPDEST PUSH2 0xFA PUSH32 0x0 DUP2 JUMP JUMPDEST PUSH2 0x17D PUSH2 0x147 CALLDATASIZE PUSH1 0x4 PUSH2 0x942 JUMP JUMPDEST PUSH1 0x1 PUSH1 0x20 DUP2 SWAP1 MSTORE PUSH1 0x0 SWAP2 DUP3 MSTORE PUSH1 0x40 SWAP1 SWAP2 KECCAK256 DUP1 SLOAD SWAP2 ADD SLOAD PUSH1 0x1 PUSH1 0x1 PUSH1 0xA0 SHL SUB DUP3 AND SWAP2 PUSH1 0x1 PUSH1 0xA0 SHL SWAP1 DIV PUSH8 0xFFFFFFFFFFFFFFFF AND SWAP1 DUP4 JUMP JUMPDEST PUSH1 0x40 DUP1 MLOAD PUSH1 0x1 PUSH1 0x1 PUSH1 0xA0 SHL SUB SWAP1 SWAP5 AND DUP5 MSTORE PUSH8 0xFFFFFFFFFFFFFFFF SWAP1 SWAP3 AND PUSH1 0x20 DUP5 ADD MSTORE SWAP1 DUP3 ADD MSTORE PUSH1 0x60 ADD PUSH2 0xB5 JUMP JUMPDEST PUSH2 0x1CE PUSH2 0x1B9 CALLDATASIZE PUSH1 0x4 PUSH2 0x95D JUMP JUMPDEST PUSH1 0x2 PUSH1 0x20 MSTORE PUSH1 0x0 SWAP1 DUP2 MSTORE PUSH1 0x40 SWAP1 KECCAK256 SLOAD PUSH1 0xFF AND DUP2 JUMP JUMPDEST PUSH1 0x40 MLOAD SWAP1 ISZERO ISZERO DUP2 MSTORE PUSH1 0x20 ADD PUSH2 0xB5 JUMP JUMPDEST PUSH2 0xD1 PUSH2 0x1EC CALLDATASIZE PUSH1 0x4 PUSH2 0x976 JUMP JUMPDEST PUSH2 0x59F JUMP JUMPDEST PUSH2 0x1CE PUSH2 0x1FF CALLDATASIZE PUSH1 0x4 PUSH2 0x9D2 JUMP JUMPDEST PUSH2 0x743 JUMP JUMPDEST PUSH2 0xAB PUSH1 0x0 SLOAD DUP2 JUMP JUMPDEST PUSH1 0x0 PUSH1 0x1 PUSH1 0x1 PUSH1 0xA0 SHL SUB DUP10 AND PUSH2 0x236 JUMPI PUSH1 0x40 MLOAD PUSH4 0xFD684C3B PUSH1 0xE0 SHL DUP2 MSTORE PUSH1 0x4 ADD PUSH1 0x40 MLOAD DUP1 SWAP2 SUB SWAP1 REVERT JUMPDEST PUSH1 0x1 PUSH1 0x1 PUSH1 0xA0 SHL SUB DUP9 AND PUSH2 0x25D JUMPI PUSH1 0x40 MLOAD PUSH4 0xBEBDC757 PUSH1 0xE0 SHL DUP2 MSTORE PUSH1 0x4 ADD PUSH1 0x40 MLOAD DUP1 SWAP2 SUB SWAP1 REVERT JUMPDEST DUP7 PUSH2 0x27B JUMPI PUSH1 0x40 MLOAD PUSH4 0x1431024B PUSH1 0xE0 SHL DUP2 MSTORE PUSH1 0x4 ADD PUSH1 0x40 MLOAD DUP1 SWAP2 SUB SWAP1 REVERT JUMPDEST DUP6 PUSH2 0x299 JUMPI PUSH1 0x40 MLOAD PUSH4 0x1431024B PUSH1 0xE0 SHL DUP2 MSTORE PUSH1 0x4 ADD PUSH1 0x40 MLOAD DUP1 SWAP2 SUB SWAP1 REVERT JUMPDEST DUP3 ISZERO DUP1 PUSH2 0x2A4 JUMPI POP DUP2 ISZERO JUMPDEST ISZERO PUSH2 0x2C2 JUMPI PUSH1 0x40 MLOAD PUSH4 0x162908E3 PUSH1 0xE1 SHL DUP2 MSTORE PUSH1 0x4 ADD PUSH1 0x40 MLOAD DUP1 SWAP2 SUB SWAP1 REVERT JUMPDEST PUSH1 0x0 DUP7 DUP2 MSTORE PUSH1 0x2 PUSH1 0x20 MSTORE PUSH1 0x40 SWAP1 KECCAK256 SLOAD PUSH1 0xFF AND ISZERO PUSH2 0x2F2 JUMPI PUSH1 0x40 MLOAD PUSH4 0x110EA835 PUSH1 0xE3 SHL DUP2 MSTORE PUSH1 0x4 ADD PUSH1 0x40 MLOAD DUP1 SWAP2 SUB SWAP1 REVERT JUMPDEST PUSH2 0x2FC DUP6 DUP6 PUSH2 0x7B8 JUMP JUMPDEST PUSH2 0x319 JUMPI PUSH1 0x40 MLOAD PUSH4 0x8686656D PUSH1 0xE0 SHL DUP2 MSTORE PUSH1 0x4 ADD PUSH1 0x40 MLOAD DUP1 SWAP2 SUB SWAP1 REVERT JUMPDEST PUSH1 0x1 PUSH1 0x1 PUSH1 0xA0 SHL SUB DUP10 DUP2 AND PUSH1 0x0 SWAP1 DUP2 MSTORE PUSH1 0x1 PUSH1 0x20 DUP2 DUP2 MSTORE PUSH1 0x40 SWAP3 DUP4 SWAP1 KECCAK256 DUP4 MLOAD PUSH1 0x60 DUP2 ADD DUP6 MSTORE DUP2 SLOAD SWAP6 DUP7 AND DUP2 MSTORE PUSH1 0x1 PUSH1 0xA0 SHL SWAP1 SWAP6 DIV PUSH8 0xFFFFFFFFFFFFFFFF AND SWAP2 DUP6 ADD SWAP2 SWAP1 SWAP2 MSTORE ADD SLOAD SWAP1 DUP3 ADD DUP2 SWAP1 MSTORE DUP9 EQ PUSH2 0x385 JUMPI PUSH1 0x40 MLOAD PUSH4 0x16F78D3B PUSH1 0xE1 SHL DUP2 MSTORE PUSH1 0x4 ADD PUSH1 0x40 MLOAD DUP1 SWAP2 SUB SWAP1 REVERT JUMPDEST DUP9 PUSH1 0x1 PUSH1 0x1 PUSH1 0xA0 SHL SUB AND DUP2 PUSH1 0x0 ADD MLOAD PUSH1 0x1 PUSH1 0x1 PUSH1 0xA0 SHL SUB AND EQ PUSH2 0x3BB JUMPI PUSH1 0x40 MLOAD PUSH4 0xBEBDC757 PUSH1 0xE0 SHL DUP2 MSTORE PUSH1 0x4 ADD PUSH1 0x40 MLOAD DUP1 SWAP2 SUB SWAP1 REVERT JUMPDEST TIMESTAMP DUP2 PUSH1 0x20 ADD MLOAD PUSH8 0xFFFFFFFFFFFFFFFF AND GT PUSH2 0x3E9 JUMPI PUSH1 0x40 MLOAD PUSH4 0x9E4C31BB PUSH1 0xE0 SHL DUP2 MSTORE PUSH1 0x4 ADD PUSH1 0x40 MLOAD DUP1 SWAP2 SUB SWAP1 REVERT JUMPDEST PUSH1 0x0 DUP8 DUP2 MSTORE PUSH1 0x2 PUSH1 0x20 MSTORE PUSH1 0x40 DUP2 KECCAK256 DUP1 SLOAD PUSH1 0xFF NOT AND PUSH1 0x1 OR SWAP1 SSTORE DUP1 SLOAD DUP2 SWAP1 PUSH2 0x40F SWAP1 PUSH2 0xA05 JUMP JUMPDEST SWAP2 DUP3 SWAP1 SSTORE POP PUSH1 0x40 DUP1 MLOAD DUP10 DUP2 MSTORE PUSH1 0x1 PUSH1 0x1 PUSH1 0xA0 SHL SUB DUP10 DUP2 AND PUSH1 0x20 DUP4 ADD MSTORE DUP9 DUP2 AND DUP3 DUP5 ADD MSTORE PUSH1 0x60 DUP3 ADD DUP9 SWAP1 MSTORE PUSH1 0x80 DUP3 ADD DUP8 SWAP1 MSTORE PUSH1 0xA0 DUP3 ADD DUP5 SWAP1 MSTORE SWAP2 MLOAD SWAP3 SWAP5 POP DUP11 SWAP3 DUP13 DUP4 AND SWAP3 DUP15 AND SWAP2 PUSH32 0x3B177429729641F17B70AE70E7D96A0ADA47277C71C90CEA26D7309FC18E6105 SWAP2 SWAP1 DUP2 SWAP1 SUB PUSH1 0xC0 ADD SWAP1 LOG4 POP SWAP9 SWAP8 POP POP POP POP POP POP POP POP JUMP JUMPDEST PUSH1 0x1 PUSH1 0x1 PUSH1 0xA0 SHL SUB DUP2 DUP2 AND PUSH1 0x0 SWAP1 DUP2 MSTORE PUSH1 0x1 PUSH1 0x20 DUP2 DUP2 MSTORE PUSH1 0x40 SWAP3 DUP4 SWAP1 KECCAK256 DUP4 MLOAD PUSH1 0x60 DUP2 ADD DUP6 MSTORE DUP2 SLOAD SWAP6 DUP7 AND DUP2 MSTORE PUSH1 0x1 PUSH1 0xA0 SHL SWAP1 SWAP6 DIV PUSH8 0xFFFFFFFFFFFFFFFF AND SWAP2 DUP6 ADD SWAP2 SWAP1 SWAP2 MSTORE ADD SLOAD SWAP1 DUP3 ADD DUP2 SWAP1 MSTORE PUSH2 0x4F7 JUMPI PUSH1 0x40 MLOAD PUSH4 0x16F78D3B PUSH1 0xE1 SHL DUP2 MSTORE PUSH1 0x4 ADD PUSH1 0x40 MLOAD DUP1 SWAP2 SUB SWAP1 REVERT JUMPDEST CALLER PUSH1 0x1 PUSH1 0x1 PUSH1 0xA0 SHL SUB DUP4 AND EQ DUP1 ISZERO SWAP1 PUSH2 0x51A JUMPI POP DUP1 MLOAD PUSH1 0x1 PUSH1 0x1 PUSH1 0xA0 SHL SUB AND CALLER EQ ISZERO JUMPDEST ISZERO PUSH2 0x538 JUMPI PUSH1 0x40 MLOAD PUSH4 0xAF625F5 PUSH1 0xE0 SHL DUP2 MSTORE PUSH1 0x4 ADD PUSH1 0x40 MLOAD DUP1 SWAP2 SUB SWAP1 REVERT JUMPDEST PUSH1 0x1 PUSH1 0x1 PUSH1 0xA0 SHL SUB DUP1 DUP4 AND PUSH1 0x0 DUP2 DUP2 MSTORE PUSH1 0x1 PUSH1 0x20 DUP2 SWAP1 MSTORE PUSH1 0x40 DUP1 DUP4 KECCAK256 DUP1 SLOAD PUSH1 0x1 PUSH1 0x1 PUSH1 0xE0 SHL SUB NOT AND DUP2 SSTORE SWAP1 SWAP2 ADD DUP3 SWAP1 SSTORE DUP5 DUP2 ADD MLOAD DUP6 MLOAD SWAP2 MLOAD SWAP1 SWAP5 SWAP2 SWAP1 SWAP2 AND SWAP3 SWAP2 PUSH32 0xB32F7A6D8EF16E1BDA5E9C36ED76153BF67FA292311003E5A49D6D02D58AB23B SWAP2 LOG4 POP POP JUMP JUMPDEST PUSH1 0x1 PUSH1 0x1 PUSH1 0xA0 SHL SUB DUP5 AND ISZERO DUP1 PUSH2 0x5BC JUMPI POP PUSH1 0x1 PUSH1 0x1 PUSH1 0xA0 SHL SUB DUP4 AND ISZERO JUMPDEST ISZERO PUSH2 0x5DA JUMPI PUSH1 0x40 MLOAD PUSH4 0xD92E233D PUSH1 0xE0 SHL DUP2 MSTORE PUSH1 0x4 ADD PUSH1 0x40 MLOAD DUP1 SWAP2 SUB SWAP1 REVERT JUMPDEST DUP2 PUSH2 0x5F8 JUMPI PUSH1 0x40 MLOAD PUSH4 0x1431024B PUSH1 0xE0 SHL DUP2 MSTORE PUSH1 0x4 ADD PUSH1 0x40 MLOAD DUP1 SWAP2 SUB SWAP1 REVERT JUMPDEST TIMESTAMP DUP2 PUSH8 0xFFFFFFFFFFFFFFFF AND GT PUSH2 0x622 JUMPI PUSH1 0x40 MLOAD PUSH4 0x9E4C31BB PUSH1 0xE0 SHL DUP2 MSTORE PUSH1 0x4 ADD PUSH1 0x40 MLOAD DUP1 SWAP2 SUB SWAP1 REVERT JUMPDEST PUSH1 0x1 PUSH1 0x1 PUSH1 0xA0 SHL SUB DUP5 DUP2 AND PUSH1 0x0 SWAP1 DUP2 MSTORE PUSH1 0x1 PUSH1 0x20 DUP2 DUP2 MSTORE PUSH1 0x40 SWAP3 DUP4 SWAP1 KECCAK256 DUP4 MLOAD PUSH1 0x60 DUP2 ADD DUP6 MSTORE DUP2 SLOAD SWAP6 DUP7 AND DUP2 MSTORE PUSH1 0x1 PUSH1 0xA0 SHL SWAP1 SWAP6 DIV PUSH8 0xFFFFFFFFFFFFFFFF AND SWAP2 DUP6 ADD DUP3 SWAP1 MSTORE SWAP1 SWAP2 ADD SLOAD SWAP2 DUP4 ADD SWAP2 SWAP1 SWAP2 MSTORE TIMESTAMP LT ISZERO PUSH2 0x691 JUMPI PUSH1 0x40 MLOAD PUSH4 0x3E85256F PUSH1 0xE1 SHL DUP2 MSTORE PUSH1 0x4 ADD PUSH1 0x40 MLOAD DUP1 SWAP2 SUB SWAP1 REVERT JUMPDEST PUSH1 0x40 DUP1 MLOAD PUSH1 0x60 DUP2 ADD DUP3 MSTORE PUSH1 0x1 PUSH1 0x1 PUSH1 0xA0 SHL SUB DUP7 DUP2 AND DUP1 DUP4 MSTORE PUSH8 0xFFFFFFFFFFFFFFFF DUP7 DUP2 AND PUSH1 0x20 DUP1 DUP7 ADD DUP3 DUP2 MSTORE DUP7 DUP9 ADD DUP12 DUP2 MSTORE DUP14 DUP8 AND PUSH1 0x0 DUP2 DUP2 MSTORE PUSH1 0x1 DUP1 DUP7 MSTORE SWAP1 DUP12 SWAP1 KECCAK256 SWAP10 MLOAD DUP11 SLOAD SWAP5 MLOAD SWAP1 SWAP8 AND PUSH1 0x1 PUSH1 0xA0 SHL MUL PUSH1 0x1 PUSH1 0x1 PUSH1 0xE0 SHL SUB NOT SWAP1 SWAP5 AND SWAP7 SWAP1 SWAP9 AND SWAP6 SWAP1 SWAP6 OR SWAP2 SWAP1 SWAP2 OR DUP8 SSTORE MLOAD SWAP6 SWAP1 SWAP5 ADD SWAP5 SWAP1 SWAP5 SSTORE SWAP4 MLOAD SWAP3 DUP4 MSTORE DUP7 SWAP4 SWAP1 SWAP3 SWAP1 SWAP2 PUSH32 0xB05B9BCD2E55F87B73DE0E4E5385F16A0A02EFB4330BEDBEB821D07FDF082978 SWAP2 ADD PUSH1 0x40 MLOAD DUP1 SWAP2 SUB SWAP1 LOG4 POP POP POP POP POP JUMP JUMPDEST PUSH1 0x1 PUSH1 0x1 PUSH1 0xA0 SHL SUB DUP3 DUP2 AND PUSH1 0x0 SWAP1 DUP2 MSTORE PUSH1 0x1 PUSH1 0x20 DUP2 DUP2 MSTORE PUSH1 0x40 DUP1 DUP5 KECCAK256 DUP2 MLOAD PUSH1 0x60 DUP2 ADD DUP4 MSTORE DUP2 SLOAD DUP1 DUP9 AND DUP1 DUP4 MSTORE PUSH1 0x1 PUSH1 0xA0 SHL SWAP1 SWAP2 DIV PUSH8 0xFFFFFFFFFFFFFFFF AND SWAP5 DUP3 ADD SWAP5 SWAP1 SWAP5 MSTORE SWAP4 ADD SLOAD SWAP1 DUP4 ADD MSTORE SWAP2 SWAP3 SWAP1 SWAP2 SWAP1 DUP5 AND EQ DUP1 ISZERO PUSH2 0x7B0 JUMPI POP TIMESTAMP DUP2 PUSH1 0x20 ADD MLOAD PUSH8 0xFFFFFFFFFFFFFFFF AND GT JUMPDEST SWAP5 SWAP4 POP POP POP POP JUMP JUMPDEST PUSH1 0x0 PUSH32 0x0 PUSH1 0x1 PUSH1 0x1 PUSH1 0xA0 SHL SUB AND DUP4 PUSH1 0x1 PUSH1 0x1 PUSH1 0xA0 SHL SUB AND EQ DUP1 ISZERO PUSH2 0x82C JUMPI POP PUSH32 0x0 PUSH1 0x1 PUSH1 0x1 PUSH1 0xA0 SHL SUB AND DUP3 PUSH1 0x1 PUSH1 0x1 PUSH1 0xA0 SHL SUB AND EQ JUMPDEST DUP1 PUSH2 0x8A4 JUMPI POP PUSH32 0x0 PUSH1 0x1 PUSH1 0x1 PUSH1 0xA0 SHL SUB AND DUP4 PUSH1 0x1 PUSH1 0x1 PUSH1 0xA0 SHL SUB AND EQ DUP1 ISZERO PUSH2 0x8A4 JUMPI POP PUSH32 0x0 PUSH1 0x1 PUSH1 0x1 PUSH1 0xA0 SHL SUB AND DUP3 PUSH1 0x1 PUSH1 0x1 PUSH1 0xA0 SHL SUB AND EQ JUMPDEST SWAP4 SWAP3 POP POP POP JUMP JUMPDEST DUP1 CALLDATALOAD PUSH1 0x1 PUSH1 0x1 PUSH1 0xA0 SHL SUB DUP2 AND DUP2 EQ PUSH2 0x8C2 JUMPI PUSH1 0x0 DUP1 REVERT JUMPDEST SWAP2 SWAP1 POP JUMP JUMPDEST PUSH1 0x0 DUP1 PUSH1 0x0 DUP1 PUSH1 0x0 DUP1 PUSH1 0x0 DUP1 PUSH2 0x100 DUP10 DUP12 SUB SLT ISZERO PUSH2 0x8E4 JUMPI PUSH1 0x0 DUP1 REVERT JUMPDEST PUSH2 0x8ED DUP10 PUSH2 0x8AB JUMP JUMPDEST SWAP8 POP PUSH2 0x8FB PUSH1 0x20 DUP11 ADD PUSH2 0x8AB JUMP JUMPDEST SWAP7 POP PUSH1 0x40 DUP10 ADD CALLDATALOAD SWAP6 POP PUSH1 0x60 DUP10 ADD CALLDATALOAD SWAP5 POP PUSH2 0x917 PUSH1 0x80 DUP11 ADD PUSH2 0x8AB JUMP JUMPDEST SWAP4 POP PUSH2 0x925 PUSH1 0xA0 DUP11 ADD PUSH2 0x8AB JUMP JUMPDEST SWAP8 SWAP11 SWAP7 SWAP10 POP SWAP5 SWAP8 SWAP4 SWAP7 SWAP3 SWAP6 SWAP3 SWAP5 POP POP POP PUSH1 0xC0 DUP3 ADD CALLDATALOAD SWAP2 PUSH1 0xE0 ADD CALLDATALOAD SWAP1 JUMP JUMPDEST PUSH1 0x0 PUSH1 0x20 DUP3 DUP5 SUB SLT ISZERO PUSH2 0x954 JUMPI PUSH1 0x0 DUP1 REVERT JUMPDEST PUSH2 0x8A4 DUP3 PUSH2 0x8AB JUMP JUMPDEST PUSH1 0x0 PUSH1 0x20 DUP3 DUP5 SUB SLT ISZERO PUSH2 0x96F JUMPI PUSH1 0x0 DUP1 REVERT JUMPDEST POP CALLDATALOAD SWAP2 SWAP1 POP JUMP JUMPDEST PUSH1 0x0 DUP1 PUSH1 0x0 DUP1 PUSH1 0x80 DUP6 DUP8 SUB SLT ISZERO PUSH2 0x98C JUMPI PUSH1 0x0 DUP1 REVERT JUMPDEST PUSH2 0x995 DUP6 PUSH2 0x8AB JUMP JUMPDEST SWAP4 POP PUSH2 0x9A3 PUSH1 0x20 DUP7 ADD PUSH2 0x8AB JUMP JUMPDEST SWAP3 POP PUSH1 0x40 DUP6 ADD CALLDATALOAD SWAP2 POP PUSH1 0x60 DUP6 ADD CALLDATALOAD PUSH8 0xFFFFFFFFFFFFFFFF DUP2 AND DUP2 EQ PUSH2 0x9C7 JUMPI PUSH1 0x0 DUP1 REVERT JUMPDEST SWAP4 SWAP7 SWAP3 SWAP6 POP SWAP1 SWAP4 POP POP JUMP JUMPDEST PUSH1 0x0 DUP1 PUSH1 0x40 DUP4 DUP6 SUB SLT ISZERO PUSH2 0x9E5 JUMPI PUSH1 0x0 DUP1 REVERT JUMPDEST PUSH2 0x9EE DUP4 PUSH2 0x8AB JUMP JUMPDEST SWAP2 POP PUSH2 0x9FC PUSH1 0x20 DUP5 ADD PUSH2 0x8AB JUMP JUMPDEST SWAP1 POP SWAP3 POP SWAP3 SWAP1 POP JUMP JUMPDEST PUSH1 0x0 PUSH1 0x1 DUP3 ADD PUSH2 0xA25 JUMPI PUSH4 0x4E487B71 PUSH1 0xE0 SHL PUSH1 0x0 MSTORE PUSH1 0x11 PUSH1 0x4 MSTORE PUSH1 0x24 PUSH1 0x0 REVERT JUMPDEST POP PUSH1 0x1 ADD SWAP1 JUMP INVALID LOG2 PUSH5 0x6970667358 0x22 SLT KECCAK256 0xD8 DELEGATECALL SWAP16 CODECOPY DUP15 0xA6 PUSH10 0x2A69D8BA0579CAC2844F SWAP16 0xC2 ORIGIN NOT SWAP7 PUSH10 0xB007E10E11700ECA3B64 PUSH20 0x6F6C634300081C00330000000000000000000000 "
        },
        "methodIdentifiers": {
          "copm()": "2c3ff7b1",
          "isSessionActive(address,address)": "b14bb914",
          "logAgentTrade(address,address,bytes32,bytes32,address,address,uint256,uint256)": "0540f98c",
          "revokeSession(address)": "1fa5d6a4",
          "sessions(address)": "431a1b97",
          "startSession(address,address,bytes32,uint64)": "a0cae3c0",
          "totalTrades()": "e275c997",
          "usdt()": "2f48ab7d",
          "usedIntents(bytes32)": "6336803b"
        }
      }
    }
  }
}