{
  "contracts/BatchExecutor.sol": {
    "BatchExecutor": {
      "abi": [
        {
          "inputs": [
            {
              "internalType": "uint256",
              "name": "index",
              "type": "uint256"
            },
            {
              "internalType": "bytes",
              "name": "reason",
              "type": "bytes"
            }
          ],
          "name": "CallFailed",
          "type": "error"
        },
        {
          "inputs": [],
          "name": "EmptyBatch",
          "type": "error"
        },
        {
          "inputs": [],
          "name": "OnlySelfDelegated",
          "type": "error"
        },
        {
          "inputs": [],
          "name": "ReentrancyGuardReentrantCall",
          "type": "error"
        },
        {
          "inputs": [
            {
              "components": [
                {
                  "internalType": "address",
                  "name": "target",
                  "type": "address"
                },
                {
                  "internalType": "uint256",
                  "name": "value",
                  "type": "uint256"
                },
                {
                  "internalType": "bytes",
                  "name": "data",
                  "type": "bytes"
                }
              ],
              "internalType": "struct BatchExecutor.Call[]",
              "name": "calls",
              "type": "tuple[]"
            }
          ],
          "name": "execute",
          "outputs": [],
          "stateMutability": "payable",
          "type": "function"
        }
      ],
      "evm": {
        "bytecode": {
          "linkReferences": {},
          "object": "6080604052348015600f57600080fd5b5060017f9b779b17422d0df92223018b32b4d1fa46e071723d6817e2486d003becc55f0055610417806100436000396000f3fe60806040526004361061001e5760003560e01c80633f707e6b14610023575b600080fd5b610036610031366004610251565b610038565b005b6100406101df565b33301461006057604051635ceb1a6b60e11b815260040160405180910390fd5b8060008190036100835760405163c2e5347d60e01b815260040160405180910390fd5b60005b818110156101b0576000808585848181106100a3576100a36102c8565b90506020028101906100b591906102de565b6100c39060208101906102fe565b6001600160a01b03168686858181106100de576100de6102c8565b90506020028101906100f091906102de565b60200135878786818110610106576101066102c8565b905060200281019061011891906102de565b61012690604081019061032e565b60405161013492919061037c565b60006040518083038185875af1925050503d8060008114610171576040519150601f19603f3d011682016040523d82523d6000602084013e610176565b606091505b5091509150816101a6578281604051635c0dee5d60e01b815260040161019d92919061038c565b60405180910390fd5b5050600101610086565b50506101db60017f9b779b17422d0df92223018b32b4d1fa46e071723d6817e2486d003becc55f0055565b5050565b6101e761020d565b60027f9b779b17422d0df92223018b32b4d1fa46e071723d6817e2486d003becc55f0055565b7f9b779b17422d0df92223018b32b4d1fa46e071723d6817e2486d003becc55f005460020361024f57604051633ee5aeb560e01b815260040160405180910390fd5b565b6000806020838503121561026457600080fd5b823567ffffffffffffffff81111561027b57600080fd5b8301601f8101851361028c57600080fd5b803567ffffffffffffffff8111156102a357600080fd5b8560208260051b84010111156102b857600080fd5b6020919091019590945092505050565b634e487b7160e01b600052603260045260246000fd5b60008235605e198336030181126102f457600080fd5b9190910192915050565b60006020828403121561031057600080fd5b81356001600160a01b038116811461032757600080fd5b9392505050565b6000808335601e1984360301811261034557600080fd5b83018035915067ffffffffffffffff82111561036057600080fd5b60200191503681900382131561037557600080fd5b9250929050565b8183823760009101908152919050565b828152604060208201526000825180604084015260005b818110156103c057602081860181015160608684010152016103a3565b506000606082850101526060601f19601f830116840101915050939250505056fea2646970667358221220c38f2215faf80698730e435109ef7a6d040183bad3262a6a8d9bc50225aaa80364736f6c634300081c0033",
          "opcodes": "PUSH1 0x80 PUSH1 0x40 MSTORE CALLVALUE DUP1 ISZERO PUSH1 0xF JUMPI PUSH1 0x0 DUP1 REVERT JUMPDEST POP PUSH1 0x1 PUSH32 0x9B779B17422D0DF92223018B32B4D1FA46E071723D6817E2486D003BECC55F00 SSTORE PUSH2 0x417 DUP1 PUSH2 0x43 PUSH1 0x0 CODECOPY PUSH1 0x0 RETURN INVALID PUSH1 0x80 PUSH1 0x40 MSTORE PUSH1 0x4 CALLDATASIZE LT PUSH2 0x1E JUMPI PUSH1 0x0 CALLDATALOAD PUSH1 0xE0 SHR DUP1 PUSH4 0x3F707E6B EQ PUSH2 0x23 JUMPI JUMPDEST PUSH1 0x0 DUP1 REVERT JUMPDEST PUSH2 0x36 PUSH2 0x31 CALLDATASIZE PUSH1 0x4 PUSH2 0x251 JUMP JUMPDEST PUSH2 0x38 JUMP JUMPDEST STOP JUMPDEST PUSH2 0x40 PUSH2 0x1DF JUMP JUMPDEST CALLER ADDRESS EQ PUSH2 0x60 JUMPI PUSH1 0x40 MLOAD PUSH4 0x5CEB1A6B PUSH1 0xE1 SHL DUP2 MSTORE PUSH1 0x4 ADD PUSH1 0x40 MLOAD DUP1 SWAP2 SUB SWAP1 REVERT JUMPDEST DUP1 PUSH1 0x0 DUP2 SWAP1 SUB PUSH2 0x83 JUMPI PUSH1 0x40 MLOAD PUSH4 0xC2E5347D PUSH1 0xE0 SHL DUP2 MSTORE PUSH1 0x4 ADD PUSH1 0x40 MLOAD DUP1 SWAP2 SUB SWAP1 REVERT JUMPDEST PUSH1 0x0 JUMPDEST DUP2 DUP2 LT ISZERO PUSH2 0x1B0 JUMPI PUSH1 0x0 DUP1 DUP6 DUP6 DUP5 DUP2 DUP2 LT PUSH2 0xA3 JUMPI PUSH2 0xA3 PUSH2 0x2C8 JUMP JUMPDEST SWAP1 POP PUSH1 0x20 MUL DUP2 ADD SWAP1 PUSH2 0xB5 SWAP2 SWAP1 PUSH2 0x2DE JUMP JUMPDEST PUSH2 0xC3 SWAP1 PUSH1 0x20 DUP2 ADD SWAP1 PUSH2 0x2FE JUMP JUMPDEST PUSH1 0x1 PUSH1 0x1 PUSH1 0xA0 SHL SUB AND DUP7 DUP7 DUP6 DUP2 DUP2 LT PUSH2 0xDE JUMPI PUSH2 0xDE PUSH2 0x2C8 JUMP JUMPDEST SWAP1 POP PUSH1 0x20 MUL DUP2 ADD SWAP1 PUSH2 0xF0 SWAP2 SWAP1 PUSH2 0x2DE JUMP JUMPDEST PUSH1 0x20 ADD CALLDATALOAD DUP8 DUP8 DUP7 DUP2 DUP2 LT PUSH2 0x106 JUMPI PUSH2 0x106 PUSH2 0x2C8 JUMP JUMPDEST SWAP1 POP PUSH1 0x20 MUL DUP2 ADD SWAP1 PUSH2 0x118 SWAP2 SWAP1 PUSH2 0x2DE JUMP JUMPDEST PUSH2 0x126 SWAP1 PUSH1 0x40 DUP2 ADD SWAP1 PUSH2 0x32E JUMP JUMPDEST PUSH1 0x40 MLOAD PUSH2 0x134 SWAP3 SWAP2 SWAP1 PUSH2 0x37C JUMP JUMPDEST PUSH1 0x0 PUSH1 0x40 MLOAD DUP1 DUP4 SUB DUP2 DUP6 DUP8 GAS CALL SWAP3 POP POP POP RETURNDATASIZE DUP1 PUSH1 0x0 DUP2 EQ PUSH2 0x171 JUMPI PUSH1 0x40 MLOAD SWAP2 POP PUSH1 0x1F NOT PUSH1 0x3F RETURNDATASIZE ADD AND DUP3 ADD PUSH1 0x40 MSTORE RETURNDATASIZE DUP3 MSTORE RETURNDATASIZE PUSH1 0x0 PUSH1 0x20 DUP5 ADD RETURNDATACOPY PUSH2 0x176 JUMP JUMPDEST PUSH1 0x60 SWAP2 POP JUMPDEST POP SWAP2 POP SWAP2 POP DUP2 PUSH2 0x1A6 JUMPI DUP3 DUP2 PUSH1 0x40 MLOAD PUSH4 0x5C0DEE5D PUSH1 0xE0 SHL DUP2 MSTORE PUSH1 0x4 ADD PUSH2 0x19D SWAP3 SWAP2 SWAP1 PUSH2 0x38C JUMP JUMPDEST PUSH1 0x40 MLOAD DUP1 SWAP2 SUB SWAP1 REVERT JUMPDEST POP POP PUSH1 0x1 ADD PUSH2 0x86 JUMP JUMPDEST POP POP PUSH2 0x1DB PUSH1 0x1 PUSH32 0x9B779B17422D0DF92223018B32B4D1FA46E071723D6817E2486D003BECC55F00 SSTORE JUMP JUMPDEST POP POP JUMP JUMPDEST PUSH2 0x1E7 PUSH2 0x20D JUMP JUMPDEST PUSH1 0x2 PUSH32 0x9B779B17422D0DF92223018B32B4D1FA46E071723D6817E2486D003BECC55F00 SSTORE JUMP JUMPDEST PUSH32 0x9B779B17422D0DF92223018B32B4D1FA46E071723D6817E2486D003BECC55F00 SLOAD PUSH1 0x2 SUB PUSH2 0x24F JUMPI PUSH1 0x40 MLOAD PUSH4 0x3EE5AEB5 PUSH1 0xE0 SHL DUP2 MSTORE PUSH1 0x4 ADD PUSH1 0x40 MLOAD DUP1 SWAP2 SUB SWAP1 REVERT JUMPDEST JUMP JUMPDEST PUSH1 0x0 DUP1 PUSH1 0x20 DUP4 DUP6 SUB SLT ISZERO PUSH2 0x264 JUMPI PUSH1 0x0 DUP1 REVERT JUMPDEST DUP3 CALLDATALOAD PUSH8 0xFFFFFFFFFFFFFFFF DUP2 GT ISZERO PUSH2 0x27B JUMPI PUSH1 0x0 DUP1 REVERT JUMPDEST DUP4 ADD PUSH1 0x1F DUP2 ADD DUP6 SGT PUSH2 0x28C JUMPI PUSH1 0x0 DUP1 REVERT JUMPDEST DUP1 CALLDATALOAD PUSH8 0xFFFFFFFFFFFFFFFF DUP2 GT ISZERO PUSH2 0x2A3 JUMPI PUSH1 0x0 DUP1 REVERT JUMPDEST DUP6 PUSH1 0x20 DUP3 PUSH1 0x5 SHL DUP5 ADD ADD GT ISZERO PUSH2 0x2B8 JUMPI PUSH1 0x0 DUP1 REVERT JUMPDEST PUSH1 0x20 SWAP2 SWAP1 SWAP2 ADD SWAP6 SWAP1 SWAP5 POP SWAP3 POP POP POP JUMP JUMPDEST PUSH4 0x4E487B71 PUSH1 0xE0 SHL PUSH1 0x0 MSTORE PUSH1 0x32 PUSH1 0x4 MSTORE PUSH1 0x24 PUSH1 0x0 REVERT JUMPDEST PUSH1 0x0 DUP3 CALLDATALOAD PUSH1 0x5E NOT DUP4 CALLDATASIZE SUB ADD DUP2 SLT PUSH2 0x2F4 JUMPI PUSH1 0x0 DUP1 REVERT JUMPDEST SWAP2 SWAP1 SWAP2 ADD SWAP3 SWAP2 POP POP JUMP JUMPDEST PUSH1 0x0 PUSH1 0x20 DUP3 DUP5 SUB SLT ISZERO PUSH2 0x310 JUMPI PUSH1 0x0 DUP1 REVERT JUMPDEST DUP2 CALLDATALOAD PUSH1 0x1 PUSH1 0x1 PUSH1 0xA0 SHL SUB DUP2 AND DUP2 EQ PUSH2 0x327 JUMPI PUSH1 0x0 DUP1 REVERT JUMPDEST SWAP4 SWAP3 POP POP POP JUMP JUMPDEST PUSH1 0x0 DUP1 DUP4 CALLDATALOAD PUSH1 0x1E NOT DUP5 CALLDATASIZE SUB ADD DUP2 SLT PUSH2 0x345 JUMPI PUSH1 0x0 DUP1 REVERT JUMPDEST DUP4 ADD DUP1 CALLDATALOAD SWAP2 POP PUSH8 0xFFFFFFFFFFFFFFFF DUP3 GT ISZERO PUSH2 0x360 JUMPI PUSH1 0x0 DUP1 REVERT JUMPDEST PUSH1 0x20 ADD SWAP2 POP CALLDATASIZE DUP2 SWAP1 SUB DUP3 SGT ISZERO PUSH2 0x375 JUMPI PUSH1 0x0 DUP1 REVERT JUMPDEST SWAP3 POP SWAP3 SWAP1 POP JUMP JUMPDEST DUP2 DUP4 DUP3 CALLDATACOPY PUSH1 0x0 SWAP2 ADD SWAP1 DUP2 MSTORE SWAP2 SWAP1 POP JUMP JUMPDEST DUP3 DUP2 MSTORE PUSH1 0x40 PUSH1 0x20 DUP3 ADD MSTORE PUSH1 0x0 DUP3 MLOAD DUP1 PUSH1 0x40 DUP5 ADD MSTORE PUSH1 0x0 JUMPDEST DUP2 DUP2 LT ISZERO PUSH2 0x3C0 JUMPI PUSH1 0x20 DUP2 DUP7 ADD DUP2 ADD MLOAD PUSH1 0x60 DUP7 DUP5 ADD ADD MSTORE ADD PUSH2 0x3A3 JUMP JUMPDEST POP PUSH1 0x0 PUSH1 0x60 DUP3 DUP6 ADD ADD MSTORE PUSH1 0x60 PUSH1 0x1F NOT PUSH1 0x1F DUP4 ADD AND DUP5 ADD ADD SWAP2 POP POP SWAP4 SWAP3 POP POP POP JUMP INVALID LOG2 PUSH5 0x6970667358 0x22 SLT KECCAK256 0xC3 DUP16 0x22 ISZERO STATICCALL 0xF8 MOD SWAP9 PUSH20 0xE435109EF7A6D040183BAD3262A6A8D9BC50225 0xAA 0xA8 SUB PUSH5 0x736F6C6343 STOP ADDMOD SHR STOP CALLER "
        },
        "methodIdentifiers": {
          "execute((address,uint256,bytes)[])": "3f707e6b"
        }
      }
    }
  }
}