{
  "contracts/CopByFXExecutor.sol": {
    "CopByFXExecutor": {
      "abi": [
        {
          "inputs": [
            {
              "internalType": "address",
              "name": "registry_",
              "type": "address"
            },
            {
              "internalType": "address",
              "name": "copm_",
              "type": "address"
            },
            {
              "internalType": "address",
              "name": "usdt_",
              "type": "address"
            },
            {
              "internalType": "address",
              "name": "swapRouter_",
              "type": "address"
            }
          ],
          "stateMutability": "nonpayable",
          "type": "constructor"
        },
        {
          "inputs": [],
          "name": "DeadlineExpired",
          "type": "error"
        },
        {
          "inputs": [],
          "name": "InvalidAmount",
          "type": "error"
        },
        {
          "inputs": [],
          "name": "InvalidRouter",
          "type": "error"
        },
        {
          "inputs": [],
          "name": "InvalidTokenPair",
          "type": "error"
        },
        {
          "inputs": [],
          "name": "ReentrancyGuardReentrantCall",
          "type": "error"
        },
        {
          "inputs": [
            {
              "internalType": "address",
              "name": "token",
              "type": "address"
            }
          ],
          "name": "SafeERC20FailedOperation",
          "type": "error"
        },
        {
          "inputs": [],
          "name": "SameToken",
          "type": "error"
        },
        {
          "inputs": [],
          "name": "SlippageExceeded",
          "type": "error"
        },
        {
          "inputs": [],
          "name": "TokenInputExceeded",
          "type": "error"
        },
        {
          "inputs": [],
          "name": "ZeroAddress",
          "type": "error"
        },
        {
          "inputs": [],
          "name": "ZeroSessionId",
          "type": "error"
        },
        {
          "anonymous": false,
          "inputs": [
            {
              "indexed": true,
              "internalType": "address",
              "name": "user",
              "type": "address"
            },
            {
              "indexed": true,
              "internalType": "address",
              "name": "agent",
              "type": "address"
            },
            {
              "indexed": true,
              "internalType": "bytes32",
              "name": "sessionId",
              "type": "bytes32"
            },
            {
              "indexed": false,
              "internalType": "bytes32",
              "name": "intentId",
              "type": "bytes32"
            },
            {
              "indexed": false,
              "internalType": "address",
              "name": "tokenIn",
              "type": "address"
            },
            {
              "indexed": false,
              "internalType": "address",
              "name": "tokenOut",
              "type": "address"
            },
            {
              "indexed": false,
              "internalType": "uint256",
              "name": "amountIn",
              "type": "uint256"
            },
            {
              "indexed": false,
              "internalType": "uint256",
              "name": "amountOut",
              "type": "uint256"
            }
          ],
          "name": "AgentTradeExecuted",
          "type": "event"
        },
        {
          "inputs": [],
          "name": "copm",
          "outputs": [
            {
              "internalType": "address",
              "name": "",
              "type": "address"
            }
          ],
          "stateMutability": "view",
          "type": "function"
        },
        {
          "inputs": [
            {
              "internalType": "bytes32",
              "name": "sessionId",
              "type": "bytes32"
            },
            {
              "internalType": "bytes32",
              "name": "intentId",
              "type": "bytes32"
            },
            {
              "internalType": "address",
              "name": "tokenIn",
              "type": "address"
            },
            {
              "internalType": "uint256",
              "name": "amountIn",
              "type": "uint256"
            },
            {
              "internalType": "uint256",
              "name": "minAmountOut",
              "type": "uint256"
            },
            {
              "internalType": "address",
              "name": "swapTarget",
              "type": "address"
            },
            {
              "internalType": "bytes",
              "name": "swapData",
              "type": "bytes"
            },
            {
              "internalType": "uint256",
              "name": "deadline",
              "type": "uint256"
            }
          ],
          "name": "executeTrade",
          "outputs": [],
          "stateMutability": "nonpayable",
          "type": "function"
        },
        {
          "inputs": [],
          "name": "registry",
          "outputs": [
            {
              "internalType": "address",
              "name": "",
              "type": "address"
            }
          ],
          "stateMutability": "view",
          "type": "function"
        },
        {
          "inputs": [],
          "name": "swapRouter",
          "outputs": [
            {
              "internalType": "address",
              "name": "",
              "type": "address"
            }
          ],
          "stateMutability": "view",
          "type": "function"
        },
        {
          "inputs": [],
          "name": "usdt",
          "outputs": [
            {
              "internalType": "address",
              "name": "",
              "type": "address"
            }
          ],
          "stateMutability": "view",
          "type": "function"
        }
      ],
      "evm": {
        "bytecode": {
          "linkReferences": {},
          "object": "61010060405234801561001157600080fd5b50604051610be8380380610be883398101604081905261003091610123565b60017f9b779b17422d0df92223018b32b4d1fa46e071723d6817e2486d003becc55f00556001600160a01b038416158061007157506001600160a01b038316155b8061008357506001600160a01b038216155b8061009557506001600160a01b038116155b156100b35760405163d92e233d60e01b815260040160405180910390fd5b816001600160a01b0316836001600160a01b0316036100e55760405163100dac0560e11b815260040160405180910390fd5b6001600160a01b0393841660805291831660a052821660c0521660e052610177565b80516001600160a01b038116811461011e57600080fd5b919050565b6000806000806080858703121561013957600080fd5b61014285610107565b935061015060208601610107565b925061015e60408601610107565b915061016c60608601610107565b905092959194509250565b60805160a05160c05160e051610a0a6101de6000396000818161010701526101a601526000818160a40152818161023501526102eb0152600081816061015281816101f80152818161028c01526102c501526000818160cb015261034e0152610a0a6000f3fe608060405234801561001057600080fd5b50600436106100575760003560e01c80632c3ff7b11461005c5780632f48ab7d1461009f5780637b103999146100c6578063bf59e628146100ed578063c31c9c0714610102575b600080fd5b6100837f000000000000000000000000000000000000000000000000000000000000000081565b6040516001600160a01b03909116815260200160405180910390f35b6100837f000000000000000000000000000000000000000000000000000000000000000081565b6100837f000000000000000000000000000000000000000000000000000000000000000081565b6101006100fb3660046108c0565b610129565b005b6100837f000000000000000000000000000000000000000000000000000000000000000081565b610131610465565b8042111561015257604051631ab7da6b60e01b815260040160405180910390fd5b88158061015d575087155b1561017b57604051631431024b60e01b815260040160405180910390fd5b851580610186575084155b156101a45760405163162908e360e11b815260040160405180910390fd5b7f00000000000000000000000000000000000000000000000000000000000000006001600160a01b0316846001600160a01b0316146101f65760405163466d7fef60e01b815260040160405180910390fd5b7f00000000000000000000000000000000000000000000000000000000000000006001600160a01b0316876001600160a01b03161415801561026a57507f00000000000000000000000000000000000000000000000000000000000000006001600160a01b0316876001600160a01b031614155b1561028857604051638686656d60e01b815260040160405180910390fd5b60007f00000000000000000000000000000000000000000000000000000000000000006001600160a01b0316886001600160a01b0316146102e9577f000000000000000000000000000000000000000000000000000000000000000061030b565b7f00000000000000000000000000000000000000000000000000000000000000005b604051633ea917dd60e21b8152306004820152336024820152604481018c9052606481018b90526001600160a01b038a8116608483015260a482018a90529192507f00000000000000000000000000000000000000000000000000000000000000009091169063faa45f749060c4016020604051808303816000875af1158015610399573d6000803e3d6000fd5b505050506040513d601f19601f820116820180604052508101906103bd9190610984565b5060006103cf89838a8a8a8a8a610493565b604080518c81526001600160a01b038c81166020830152851681830152606081018b90526080810183905290519192508c91339130917f70970b57a4af6b1c86e18528ab5dd60e0094c1a08a122191d459247288b456449181900360a00190a4505061045a60017f9b779b17422d0df92223018b32b4d1fa46e071723d6817e2486d003becc55f0055565b505050505050505050565b61046d610774565b60027f9b779b17422d0df92223018b32b4d1fa46e071723d6817e2486d003becc55f0055565b6040516370a0823160e01b81523060048201526000908890889083906001600160a01b038416906370a0823190602401602060405180830381865afa1580156104e0573d6000803e3d6000fd5b505050506040513d601f19601f820116820180604052508101906105049190610984565b6040516370a0823160e01b81523060048201529091506000906001600160a01b038416906370a0823190602401602060405180830381865afa15801561054e573d6000803e3d6000fd5b505050506040513d601f19601f820116820180604052508101906105729190610984565b90506105896001600160a01b0385168960006107b8565b61059d6001600160a01b038516898c6107b8565b600080896001600160a01b031689896040516105ba92919061099d565b6000604051808303816000865af19150503d80600081146105f7576040519150601f19603f3d011682016040523d82523d6000602084013e6105fc565b606091505b5090925090506106176001600160a01b0387168b60006107b8565b8161062457805160208201fd5b6040516370a0823160e01b81523060048201526000906001600160a01b038816906370a0823190602401602060405180830381865afa15801561066b573d6000803e3d6000fd5b505050506040513d601f19601f8201168201806040525081019061068f9190610984565b6040516370a0823160e01b81523060048201529091506000906001600160a01b038816906370a0823190602401602060405180830381865afa1580156106d9573d6000803e3d6000fd5b505050506040513d601f19601f820116820180604052508101906106fd9190610984565b9050818611801561071657508d61071483886109ad565b115b156107345760405163b7f31bab60e01b815260040160405180910390fd5b61073e85826109ad565b98508c89101561076157604051638199f5f360e01b815260040160405180910390fd5b5050505050505050979650505050505050565b7f9b779b17422d0df92223018b32b4d1fa46e071723d6817e2486d003becc55f00546002036107b657604051633ee5aeb560e01b815260040160405180910390fd5b565b6107c5838383600061083e565b610839576107d783836000600161083e565b61080457604051635274afe760e01b81526001600160a01b03841660048201526024015b60405180910390fd5b610811838383600161083e565b61083957604051635274afe760e01b81526001600160a01b03841660048201526024016107fb565b505050565b60405163095ea7b360e01b60008181526001600160a01b038616600452602485905291602083604481808b5af19250600160005114831661089857838315161561088b573d6000823e3d81fd5b6000873b113d1516831692505b60405250949350505050565b80356001600160a01b03811681146108bb57600080fd5b919050565b60008060008060008060008060006101008a8c0312156108df57600080fd5b8935985060208a013597506108f660408b016108a4565b965060608a0135955060808a0135945061091260a08b016108a4565b935060c08a013567ffffffffffffffff81111561092e57600080fd5b8a01601f81018c1361093f57600080fd5b803567ffffffffffffffff81111561095657600080fd5b8c602082840101111561096857600080fd5b999c989b5096999598949793966020019560e001359392505050565b60006020828403121561099657600080fd5b5051919050565b8183823760009101908152919050565b818103818111156109ce57634e487b7160e01b600052601160045260246000fd5b9291505056fea264697066735822122053b74dbf22e2cb7a1f2869d40d272422614394cc67a130b02af539a7a82503f364736f6c634300081c0033",
          "opcodes": "PUSH2 0x100 PUSH1 0x40 MSTORE CALLVALUE DUP1 ISZERO PUSH2 0x11 JUMPI PUSH1 0x0 DUP1 REVERT JUMPDEST POP PUSH1 0x40 MLOAD PUSH2 0xBE8 CODESIZE SUB DUP1 PUSH2 0xBE8 DUP4 CODECOPY DUP2 ADD PUSH1 0x40 DUP2 SWAP1 MSTORE PUSH2 0x30 SWAP2 PUSH2 0x123 JUMP JUMPDEST PUSH1 0x1 PUSH32 0x9B779B17422D0DF92223018B32B4D1FA46E071723D6817E2486D003BECC55F00 SSTORE PUSH1 0x1 PUSH1 0x1 PUSH1 0xA0 SHL SUB DUP5 AND ISZERO DUP1 PUSH2 0x71 JUMPI POP PUSH1 0x1 PUSH1 0x1 PUSH1 0xA0 SHL SUB DUP4 AND ISZERO JUMPDEST DUP1 PUSH2 0x83 JUMPI POP PUSH1 0x1 PUSH1 0x1 PUSH1 0xA0 SHL SUB DUP3 AND ISZERO JUMPDEST DUP1 PUSH2 0x95 JUMPI POP PUSH1 0x1 PUSH1 0x1 PUSH1 0xA0 SHL SUB DUP2 AND ISZERO JUMPDEST ISZERO PUSH2 0xB3 JUMPI PUSH1 0x40 MLOAD PUSH4 0xD92E233D PUSH1 0xE0 SHL DUP2 MSTORE PUSH1 0x4 ADD PUSH1 0x40 MLOAD DUP1 SWAP2 SUB SWAP1 REVERT JUMPDEST DUP2 PUSH1 0x1 PUSH1 0x1 PUSH1 0xA0 SHL SUB AND DUP4 PUSH1 0x1 PUSH1 0x1 PUSH1 0xA0 SHL SUB AND SUB PUSH2 0xE5 JUMPI PUSH1 0x40 MLOAD PUSH4 0x100DAC05 PUSH1 0xE1 SHL DUP2 MSTORE PUSH1 0x4 ADD PUSH1 0x40 MLOAD DUP1 SWAP2 SUB SWAP1 REVERT JUMPDEST PUSH1 0x1 PUSH1 0x1 PUSH1 0xA0 SHL SUB SWAP4 DUP5 AND PUSH1 0x80 MSTORE SWAP2 DUP4 AND PUSH1 0xA0 MSTORE DUP3 AND PUSH1 0xC0 MSTORE AND PUSH1 0xE0 MSTORE PUSH2 0x177 JUMP JUMPDEST DUP1 MLOAD PUSH1 0x1 PUSH1 0x1 PUSH1 0xA0 SHL SUB DUP2 AND DUP2 EQ PUSH2 0x11E JUMPI PUSH1 0x0 DUP1 REVERT JUMPDEST SWAP2 SWAP1 POP JUMP JUMPDEST PUSH1 0x0 DUP1 PUSH1 0x0 DUP1 PUSH1 0x80 DUP6 DUP8 SUB SLT ISZERO PUSH2 0x139 JUMPI PUSH1 0x0 DUP1 REVERT JUMPDEST PUSH2 0x142 DUP6 PUSH2 0x107 JUMP JUMPDEST SWAP4 POP PUSH2 0x150 PUSH1 0x20 DUP7 ADD PUSH2 0x107 JUMP JUMPDEST SWAP3 POP PUSH2 0x15E PUSH1 0x40 DUP7 ADD PUSH2 0x107 JUMP JUMPDEST SWAP2 POP PUSH2 0x16C PUSH1 0x60 DUP7 ADD PUSH2 0x107 JUMP JUMPDEST SWAP1 POP SWAP3 SWAP6 SWAP2 SWAP5 POP SWAP3 POP JUMP JUMPDEST PUSH1 0x80 MLOAD PUSH1 0xA0 MLOAD PUSH1 0xC0 MLOAD PUSH1 0xE0 MLOAD PUSH2 0xA0A PUSH2 0x1DE PUSH1 0x0 CODECOPY PUSH1 0x0 DUP2 DUP2 PUSH2 0x107 ADD MSTORE PUSH2 0x1A6 ADD MSTORE PUSH1 0x0 DUP2 DUP2 PUSH1 0xA4 ADD MSTORE DUP2 DUP2 PUSH2 0x235 ADD MSTORE PUSH2 0x2EB ADD MSTORE PUSH1 0x0 DUP2 DUP2 PUSH1 0x61 ADD MSTORE DUP2 DUP2 PUSH2 0x1F8 ADD MSTORE DUP2 DUP2 PUSH2 0x28C ADD MSTORE PUSH2 0x2C5 ADD MSTORE PUSH1 0x0 DUP2 DUP2 PUSH1 0xCB ADD MSTORE PUSH2 0x34E ADD MSTORE PUSH2 0xA0A PUSH1 0x0 RETURN INVALID PUSH1 0x80 PUSH1 0x40 MSTORE CALLVALUE DUP1 ISZERO PUSH2 0x10 JUMPI PUSH1 0x0 DUP1 REVERT JUMPDEST POP PUSH1 0x4 CALLDATASIZE LT PUSH2 0x57 JUMPI PUSH1 0x0 CALLDATALOAD PUSH1 0xE0 SHR DUP1 PUSH4 0x2C3FF7B1 EQ PUSH2 0x5C JUMPI DUP1 PUSH4 0x2F48AB7D EQ PUSH2 0x9F JUMPI DUP1 PUSH4 0x7B103999 EQ PUSH2 0xC6 JUMPI DUP1 PUSH4 0xBF59E628 EQ PUSH2 0xED JUMPI DUP1 PUSH4 0xC31C9C07 EQ PUSH2 0x102 JUMPI JUMPDEST PUSH1 0x0 DUP1 REVERT JUMPDEST PUSH2 0x83 PUSH32 0x0 DUP2 JUMP JUMPDEST PUSH1 0x40 MLOAD PUSH1 0x1 PUSH1 0x1 PUSH1 0xA0 SHL SUB SWAP1 SWAP2 AND DUP2 MSTORE PUSH1 0x20 ADD PUSH1 0x40 MLOAD DUP1 SWAP2 SUB SWAP1 RETURN JUMPDEST PUSH2 0x83 PUSH32 0x0 DUP2 JUMP JUMPDEST PUSH2 0x83 PUSH32 0x0 DUP2 JUMP JUMPDEST PUSH2 0x100 PUSH2 0xFB CALLDATASIZE PUSH1 0x4 PUSH2 0x8C0 JUMP JUMPDEST PUSH2 0x129 JUMP JUMPDEST STOP JUMPDEST PUSH2 0x83 PUSH32 0x0 DUP2 JUMP JUMPDEST PUSH2 0x131 PUSH2 0x465 JUMP JUMPDEST DUP1 TIMESTAMP GT ISZERO PUSH2 0x152 JUMPI PUSH1 0x40 MLOAD PUSH4 0x1AB7DA6B PUSH1 0xE0 SHL DUP2 MSTORE PUSH1 0x4 ADD PUSH1 0x40 MLOAD DUP1 SWAP2 SUB SWAP1 REVERT JUMPDEST DUP9 ISZERO DUP1 PUSH2 0x15D JUMPI POP DUP8 ISZERO JUMPDEST ISZERO PUSH2 0x17B JUMPI PUSH1 0x40 MLOAD PUSH4 0x1431024B PUSH1 0xE0 SHL DUP2 MSTORE PUSH1 0x4 ADD PUSH1 0x40 MLOAD DUP1 SWAP2 SUB SWAP1 REVERT JUMPDEST DUP6 ISZERO DUP1 PUSH2 0x186 JUMPI POP DUP5 ISZERO JUMPDEST ISZERO PUSH2 0x1A4 JUMPI PUSH1 0x40 MLOAD PUSH4 0x162908E3 PUSH1 0xE1 SHL DUP2 MSTORE PUSH1 0x4 ADD PUSH1 0x40 MLOAD DUP1 SWAP2 SUB SWAP1 REVERT JUMPDEST PUSH32 0x0 PUSH1 0x1 PUSH1 0x1 PUSH1 0xA0 SHL SUB AND DUP5 PUSH1 0x1 PUSH1 0x1 PUSH1 0xA0 SHL SUB AND EQ PUSH2 0x1F6 JUMPI PUSH1 0x40 MLOAD PUSH4 0x466D7FEF PUSH1 0xE0 SHL DUP2 MSTORE PUSH1 0x4 ADD PUSH1 0x40 MLOAD DUP1 SWAP2 SUB SWAP1 REVERT JUMPDEST PUSH32 0x0 PUSH1 0x1 PUSH1 0x1 PUSH1 0xA0 SHL SUB AND DUP8 PUSH1 0x1 PUSH1 0x1 PUSH1 0xA0 SHL SUB AND EQ ISZERO DUP1 ISZERO PUSH2 0x26A JUMPI POP PUSH32 0x0 PUSH1 0x1 PUSH1 0x1 PUSH1 0xA0 SHL SUB AND DUP8 PUSH1 0x1 PUSH1 0x1 PUSH1 0xA0 SHL SUB AND EQ ISZERO JUMPDEST ISZERO PUSH2 0x288 JUMPI PUSH1 0x40 MLOAD PUSH4 0x8686656D PUSH1 0xE0 SHL DUP2 MSTORE PUSH1 0x4 ADD PUSH1 0x40 MLOAD DUP1 SWAP2 SUB SWAP1 REVERT JUMPDEST PUSH1 0x0 PUSH32 0x0 PUSH1 0x1 PUSH1 0x1 PUSH1 0xA0 SHL SUB AND DUP9 PUSH1 0x1 PUSH1 0x1 PUSH1 0xA0 SHL SUB AND EQ PUSH2 0x2E9 JUMPI PUSH32 0x0 PUSH2 0x30B JUMP JUMPDEST PUSH32 0x0 JUMPDEST PUSH1 0x40 MLOAD PUSH4 0x3EA917DD PUSH1 0xE2 SHL DUP2 MSTORE ADDRESS PUSH1 0x4 DUP3 ADD MSTORE CALLER PUSH1 0x24 DUP3 ADD MSTORE PUSH1 0x44 DUP2 ADD DUP13 SWAP1 MSTORE PUSH1 0x64 DUP2 ADD DUP12 SWAP1 MSTORE PUSH1 0x1 PUSH1 0x1 PUSH1 0xA0 SHL SUB DUP11 DUP2 AND PUSH1 0x84 DUP4 ADD MSTORE PUSH1 0xA4 DUP3 ADD DUP11 SWAP1 MSTORE SWAP2 SWAP3 POP PUSH32 0x0 SWAP1 SWAP2 AND SWAP1 PUSH4 0xFAA45F74 SWAP1 PUSH1 0xC4 ADD PUSH1 0x20 PUSH1 0x40 MLOAD DUP1 DUP4 SUB DUP2 PUSH1 0x0 DUP8 GAS CALL ISZERO DUP1 ISZERO PUSH2 0x399 JUMPI RETURNDATASIZE PUSH1 0x0 DUP1 RETURNDATACOPY RETURNDATASIZE PUSH1 0x0 REVERT JUMPDEST POP POP POP POP PUSH1 0x40 MLOAD RETURNDATASIZE PUSH1 0x1F NOT PUSH1 0x1F DUP3 ADD AND DUP3 ADD DUP1 PUSH1 0x40 MSTORE POP DUP2 ADD SWAP1 PUSH2 0x3BD SWAP2 SWAP1 PUSH2 0x984 JUMP JUMPDEST POP PUSH1 0x0 PUSH2 0x3CF DUP10 DUP4 DUP11 DUP11 DUP11 DUP11 DUP11 PUSH2 0x493 JUMP JUMPDEST PUSH1 0x40 DUP1 MLOAD DUP13 DUP2 MSTORE PUSH1 0x1 PUSH1 0x1 PUSH1 0xA0 SHL SUB DUP13 DUP2 AND PUSH1 0x20 DUP4 ADD MSTORE DUP6 AND DUP2 DUP4 ADD MSTORE PUSH1 0x60 DUP2 ADD DUP12 SWAP1 MSTORE PUSH1 0x80 DUP2 ADD DUP4 SWAP1 MSTORE SWAP1 MLOAD SWAP2 SWAP3 POP DUP13 SWAP2 CALLER SWAP2 ADDRESS SWAP2 PUSH32 0x70970B57A4AF6B1C86E18528AB5DD60E0094C1A08A122191D459247288B45644 SWAP2 DUP2 SWAP1 SUB PUSH1 0xA0 ADD SWAP1 LOG4 POP POP PUSH2 0x45A PUSH1 0x1 PUSH32 0x9B779B17422D0DF92223018B32B4D1FA46E071723D6817E2486D003BECC55F00 SSTORE JUMP JUMPDEST POP POP POP POP POP POP POP POP POP JUMP JUMPDEST PUSH2 0x46D PUSH2 0x774 JUMP JUMPDEST PUSH1 0x2 PUSH32 0x9B779B17422D0DF92223018B32B4D1FA46E071723D6817E2486D003BECC55F00 SSTORE JUMP JUMPDEST PUSH1 0x40 MLOAD PUSH4 0x70A08231 PUSH1 0xE0 SHL DUP2 MSTORE ADDRESS PUSH1 0x4 DUP3 ADD MSTORE PUSH1 0x0 SWAP1 DUP9 SWAP1 DUP9 SWAP1 DUP4 SWAP1 PUSH1 0x1 PUSH1 0x1 PUSH1 0xA0 SHL SUB DUP5 AND SWAP1 PUSH4 0x70A08231 SWAP1 PUSH1 0x24 ADD PUSH1 0x20 PUSH1 0x40 MLOAD DUP1 DUP4 SUB DUP2 DUP7 GAS STATICCALL ISZERO DUP1 ISZERO PUSH2 0x4E0 JUMPI RETURNDATASIZE PUSH1 0x0 DUP1 RETURNDATACOPY RETURNDATASIZE PUSH1 0x0 REVERT JUMPDEST POP POP POP POP PUSH1 0x40 MLOAD RETURNDATASIZE PUSH1 0x1F NOT PUSH1 0x1F DUP3 ADD AND DUP3 ADD DUP1 PUSH1 0x40 MSTORE POP DUP2 ADD SWAP1 PUSH2 0x504 SWAP2 SWAP1 PUSH2 0x984 JUMP JUMPDEST PUSH1 0x40 MLOAD PUSH4 0x70A08231 PUSH1 0xE0 SHL DUP2 MSTORE ADDRESS PUSH1 0x4 DUP3 ADD MSTORE SWAP1 SWAP2 POP PUSH1 0x0 SWAP1 PUSH1 0x1 PUSH1 0x1 PUSH1 0xA0 SHL SUB DUP5 AND SWAP1 PUSH4 0x70A08231 SWAP1 PUSH1 0x24 ADD PUSH1 0x20 PUSH1 0x40 MLOAD DUP1 DUP4 SUB DUP2 DUP7 GAS STATICCALL ISZERO DUP1 ISZERO PUSH2 0x54E JUMPI RETURNDATASIZE PUSH1 0x0 DUP1 RETURNDATACOPY RETURNDATASIZE PUSH1 0x0 REVERT JUMPDEST POP POP POP POP PUSH1 0x40 MLOAD RETURNDATASIZE PUSH1 0x1F NOT PUSH1 0x1F DUP3 ADD AND DUP3 ADD DUP1 PUSH1 0x40 MSTORE POP DUP2 ADD SWAP1 PUSH2 0x572 SWAP2 SWAP1 PUSH2 0x984 JUMP JUMPDEST SWAP1 POP PUSH2 0x589 PUSH1 0x1 PUSH1 0x1 PUSH1 0xA0 SHL SUB DUP6 AND DUP10 PUSH1 0x0 PUSH2 0x7B8 JUMP JUMPDEST PUSH2 0x59D PUSH1 0x1 PUSH1 0x1 PUSH1 0xA0 SHL SUB DUP6 AND DUP10 DUP13 PUSH2 0x7B8 JUMP JUMPDEST PUSH1 0x0 DUP1 DUP10 PUSH1 0x1 PUSH1 0x1 PUSH1 0xA0 SHL SUB AND DUP10 DUP10 PUSH1 0x40 MLOAD PUSH2 0x5BA SWAP3 SWAP2 SWAP1 PUSH2 0x99D JUMP JUMPDEST PUSH1 0x0 PUSH1 0x40 MLOAD DUP1 DUP4 SUB DUP2 PUSH1 0x0 DUP7 GAS CALL SWAP2 POP POP RETURNDATASIZE DUP1 PUSH1 0x0 DUP2 EQ PUSH2 0x5F7 JUMPI PUSH1 0x40 MLOAD SWAP2 POP PUSH1 0x1F NOT PUSH1 0x3F RETURNDATASIZE ADD AND DUP3 ADD PUSH1 0x40 MSTORE RETURNDATASIZE DUP3 MSTORE RETURNDATASIZE PUSH1 0x0 PUSH1 0x20 DUP5 ADD RETURNDATACOPY PUSH2 0x5FC JUMP JUMPDEST PUSH1 0x60 SWAP2 POP JUMPDEST POP SWAP1 SWAP3 POP SWAP1 POP PUSH2 0x617 PUSH1 0x1 PUSH1 0x1 PUSH1 0xA0 SHL SUB DUP8 AND DUP12 PUSH1 0x0 PUSH2 0x7B8 JUMP JUMPDEST DUP2 PUSH2 0x624 JUMPI DUP1 MLOAD PUSH1 0x20 DUP3 ADD REVERT JUMPDEST PUSH1 0x40 MLOAD PUSH4 0x70A08231 PUSH1 0xE0 SHL DUP2 MSTORE ADDRESS PUSH1 0x4 DUP3 ADD MSTORE PUSH1 0x0 SWAP1 PUSH1 0x1 PUSH1 0x1 PUSH1 0xA0 SHL SUB DUP9 AND SWAP1 PUSH4 0x70A08231 SWAP1 PUSH1 0x24 ADD PUSH1 0x20 PUSH1 0x40 MLOAD DUP1 DUP4 SUB DUP2 DUP7 GAS STATICCALL ISZERO DUP1 ISZERO PUSH2 0x66B JUMPI RETURNDATASIZE PUSH1 0x0 DUP1 RETURNDATACOPY RETURNDATASIZE PUSH1 0x0 REVERT JUMPDEST POP POP POP POP PUSH1 0x40 MLOAD RETURNDATASIZE PUSH1 0x1F NOT PUSH1 0x1F DUP3 ADD AND DUP3 ADD DUP1 PUSH1 0x40 MSTORE POP DUP2 ADD SWAP1 PUSH2 0x68F SWAP2 SWAP1 PUSH2 0x984 JUMP JUMPDEST PUSH1 0x40 MLOAD PUSH4 0x70A08231 PUSH1 0xE0 SHL DUP2 MSTORE ADDRESS PUSH1 0x4 DUP3 ADD MSTORE SWAP1 SWAP2 POP PUSH1 0x0 SWAP1 PUSH1 0x1 PUSH1 0x1 PUSH1 0xA0 SHL SUB DUP9 AND SWAP1 PUSH4 0x70A08231 SWAP1 PUSH1 0x24 ADD PUSH1 0x20 PUSH1 0x40 MLOAD DUP1 DUP4 SUB DUP2 DUP7 GAS STATICCALL ISZERO DUP1 ISZERO PUSH2 0x6D9 JUMPI RETURNDATASIZE PUSH1 0x0 DUP1 RETURNDATACOPY RETURNDATASIZE PUSH1 0x0 REVERT JUMPDEST POP POP POP POP PUSH1 0x40 MLOAD RETURNDATASIZE PUSH1 0x1F NOT PUSH1 0x1F DUP3 ADD AND DUP3 ADD DUP1 PUSH1 0x40 MSTORE POP DUP2 ADD SWAP1 PUSH2 0x6FD SWAP2 SWAP1 PUSH2 0x984 JUMP JUMPDEST SWAP1 POP DUP2 DUP7 GT DUP1 ISZERO PUSH2 0x716 JUMPI POP DUP14 PUSH2 0x714 DUP4 DUP9 PUSH2 0x9AD JUMP JUMPDEST GT JUMPDEST ISZERO PUSH2 0x734 JUMPI PUSH1 0x40 MLOAD PUSH4 0xB7F31BAB PUSH1 0xE0 SHL DUP2 MSTORE PUSH1 0x4 ADD PUSH1 0x40 MLOAD DUP1 SWAP2 SUB SWAP1 REVERT JUMPDEST PUSH2 0x73E DUP6 DUP3 PUSH2 0x9AD JUMP JUMPDEST SWAP9 POP DUP13 DUP10 LT ISZERO PUSH2 0x761 JUMPI PUSH1 0x40 MLOAD PUSH4 0x8199F5F3 PUSH1 0xE0 SHL DUP2 MSTORE PUSH1 0x4 ADD PUSH1 0x40 MLOAD DUP1 SWAP2 SUB SWAP1 REVERT JUMPDEST POP POP POP POP POP POP POP POP SWAP8 SWAP7 POP POP POP POP POP POP POP JUMP JUMPDEST PUSH32 0x9B779B17422D0DF92223018B32B4D1FA46E071723D6817E2486D003BECC55F00 SLOAD PUSH1 0x2 SUB PUSH2 0x7B6 JUMPI PUSH1 0x40 MLOAD PUSH4 0x3EE5AEB5 PUSH1 0xE0 SHL DUP2 MSTORE PUSH1 0x4 ADD PUSH1 0x40 MLOAD DUP1 SWAP2 SUB SWAP1 REVERT JUMPDEST JUMP JUMPDEST PUSH2 0x7C5 DUP4 DUP4 DUP4 PUSH1 0x0 PUSH2 0x83E JUMP JUMPDEST PUSH2 0x839 JUMPI PUSH2 0x7D7 DUP4 DUP4 PUSH1 0x0 PUSH1 0x1 PUSH2 0x83E JUMP JUMPDEST PUSH2 0x804 JUMPI PUSH1 0x40 MLOAD PUSH4 0x5274AFE7 PUSH1 0xE0 SHL DUP2 MSTORE PUSH1 0x1 PUSH1 0x1 PUSH1 0xA0 SHL SUB DUP5 AND PUSH1 0x4 DUP3 ADD MSTORE PUSH1 0x24 ADD JUMPDEST PUSH1 0x40 MLOAD DUP1 SWAP2 SUB SWAP1 REVERT JUMPDEST PUSH2 0x811 DUP4 DUP4 DUP4 PUSH1 0x1 PUSH2 0x83E JUMP JUMPDEST PUSH2 0x839 JUMPI PUSH1 0x40 MLOAD PUSH4 0x5274AFE7 PUSH1 0xE0 SHL DUP2 MSTORE PUSH1 0x1 PUSH1 0x1 PUSH1 0xA0 SHL SUB DUP5 AND PUSH1 0x4 DUP3 ADD MSTORE PUSH1 0x24 ADD PUSH2 0x7FB JUMP JUMPDEST POP POP POP JUMP JUMPDEST PUSH1 0x40 MLOAD PUSH4 0x95EA7B3 PUSH1 0xE0 SHL PUSH1 0x0 DUP2 DUP2 MSTORE PUSH1 0x1 PUSH1 0x1 PUSH1 0xA0 SHL SUB DUP7 AND PUSH1 0x4 MSTORE PUSH1 0x24 DUP6 SWAP1 MSTORE SWAP2 PUSH1 0x20 DUP4 PUSH1 0x44 DUP2 DUP1 DUP12 GAS CALL SWAP3 POP PUSH1 0x1 PUSH1 0x0 MLOAD EQ DUP4 AND PUSH2 0x898 JUMPI DUP4 DUP4 ISZERO AND ISZERO PUSH2 0x88B JUMPI RETURNDATASIZE PUSH1 0x0 DUP3 RETURNDATACOPY RETURNDATASIZE DUP2 REVERT JUMPDEST PUSH1 0x0 DUP8 EXTCODESIZE GT RETURNDATASIZE ISZERO AND DUP4 AND SWAP3 POP JUMPDEST PUSH1 0x40 MSTORE POP SWAP5 SWAP4 POP POP POP POP JUMP JUMPDEST DUP1 CALLDATALOAD PUSH1 0x1 PUSH1 0x1 PUSH1 0xA0 SHL SUB DUP2 AND DUP2 EQ PUSH2 0x8BB JUMPI PUSH1 0x0 DUP1 REVERT JUMPDEST SWAP2 SWAP1 POP JUMP JUMPDEST PUSH1 0x0 DUP1 PUSH1 0x0 DUP1 PUSH1 0x0 DUP1 PUSH1 0x0 DUP1 PUSH1 0x0 PUSH2 0x100 DUP11 DUP13 SUB SLT ISZERO PUSH2 0x8DF JUMPI PUSH1 0x0 DUP1 REVERT JUMPDEST DUP10 CALLDATALOAD SWAP9 POP PUSH1 0x20 DUP11 ADD CALLDATALOAD SWAP8 POP PUSH2 0x8F6 PUSH1 0x40 DUP12 ADD PUSH2 0x8A4 JUMP JUMPDEST SWAP7 POP PUSH1 0x60 DUP11 ADD CALLDATALOAD SWAP6 POP PUSH1 0x80 DUP11 ADD CALLDATALOAD SWAP5 POP PUSH2 0x912 PUSH1 0xA0 DUP12 ADD PUSH2 0x8A4 JUMP JUMPDEST SWAP4 POP PUSH1 0xC0 DUP11 ADD CALLDATALOAD PUSH8 0xFFFFFFFFFFFFFFFF DUP2 GT ISZERO PUSH2 0x92E JUMPI PUSH1 0x0 DUP1 REVERT JUMPDEST DUP11 ADD PUSH1 0x1F DUP2 ADD DUP13 SGT PUSH2 0x93F JUMPI PUSH1 0x0 DUP1 REVERT JUMPDEST DUP1 CALLDATALOAD PUSH8 0xFFFFFFFFFFFFFFFF DUP2 GT ISZERO PUSH2 0x956 JUMPI PUSH1 0x0 DUP1 REVERT JUMPDEST DUP13 PUSH1 0x20 DUP3 DUP5 ADD ADD GT ISZERO PUSH2 0x968 JUMPI PUSH1 0x0 DUP1 REVERT JUMPDEST SWAP10 SWAP13 SWAP9 SWAP12 POP SWAP7 SWAP10 SWAP6 SWAP9 SWAP5 SWAP8 SWAP4 SWAP7 PUSH1 0x20 ADD SWAP6 PUSH1 0xE0 ADD CALLDATALOAD SWAP4 SWAP3 POP POP POP JUMP JUMPDEST PUSH1 0x0 PUSH1 0x20 DUP3 DUP5 SUB SLT ISZERO PUSH2 0x996 JUMPI PUSH1 0x0 DUP1 REVERT JUMPDEST POP MLOAD SWAP2 SWAP1 POP JUMP JUMPDEST DUP2 DUP4 DUP3 CALLDATACOPY PUSH1 0x0 SWAP2 ADD SWAP1 DUP2 MSTORE SWAP2 SWAP1 POP JUMP JUMPDEST DUP2 DUP2 SUB DUP2 DUP2 GT ISZERO PUSH2 0x9CE JUMPI PUSH4 0x4E487B71 PUSH1 0xE0 SHL PUSH1 0x0 MSTORE PUSH1 0x11 PUSH1 0x4 MSTORE PUSH1 0x24 PUSH1 0x0 REVERT JUMPDEST SWAP3 SWAP2 POP POP JUMP INVALID LOG2 PUSH5 0x6970667358 0x22 SLT KECCAK256 MSTORE8 0xB7 0x4D 0xBF 0x22 0xE2 0xCB PUSH27 0x1F2869D40D272422614394CC67A130B02AF539A7A82503F364736F PUSH13 0x634300081C0033000000000000 "
        },
        "methodIdentifiers": {
          "copm()": "2c3ff7b1",
          "executeTrade(bytes32,bytes32,address,uint256,uint256,address,bytes,uint256)": "bf59e628",
          "registry()": "7b103999",
          "swapRouter()": "c31c9c07",
          "usdt()": "2f48ab7d"
        }
      }
    }
  }
}