{
  "contracts/MockFXRouter.sol": {
    "MockFXRouter": {
      "abi": [
        {
          "anonymous": false,
          "inputs": [
            {
              "indexed": true,
              "internalType": "address",
              "name": "sender",
              "type": "address"
            },
            {
              "indexed": true,
              "internalType": "address",
              "name": "tokenIn",
              "type": "address"
            },
            {
              "indexed": true,
              "internalType": "address",
              "name": "tokenOut",
              "type": "address"
            },
            {
              "indexed": false,
              "internalType": "address",
              "name": "recipient",
              "type": "address"
            },
            {
              "indexed": false,
              "internalType": "uint256",
              "name": "amountIn",
              "type": "uint256"
            },
            {
              "indexed": false,
              "internalType": "uint256",
              "name": "amountOut",
              "type": "uint256"
            }
          ],
          "name": "Swapped",
          "type": "event"
        },
        {
          "inputs": [
            {
              "internalType": "address",
              "name": "tokenIn",
              "type": "address"
            },
            {
              "internalType": "uint256",
              "name": "amount",
              "type": "uint256"
            }
          ],
          "name": "drainExtra",
          "outputs": [],
          "stateMutability": "nonpayable",
          "type": "function"
        },
        {
          "inputs": [],
          "name": "fail",
          "outputs": [],
          "stateMutability": "pure",
          "type": "function"
        },
        {
          "inputs": [
            {
              "internalType": "address",
              "name": "tokenIn",
              "type": "address"
            },
            {
              "internalType": "address",
              "name": "tokenOut",
              "type": "address"
            },
            {
              "internalType": "uint256",
              "name": "amountIn",
              "type": "uint256"
            },
            {
              "internalType": "uint256",
              "name": "amountOut",
              "type": "uint256"
            },
            {
              "internalType": "address",
              "name": "recipient",
              "type": "address"
            }
          ],
          "name": "swap",
          "outputs": [],
          "stateMutability": "nonpayable",
          "type": "function"
        }
      ],
      "evm": {
        "bytecode": {
          "linkReferences": {},
          "object": "6080604052348015600f57600080fd5b506103748061001f6000396000f3fe608060405234801561001057600080fd5b50600436106100415760003560e01c80631aca9be714610046578063a9cc47181461005b578063d5bcb9b514610063575b600080fd5b610059610054366004610294565b610076565b005b6100596100f2565b6100596100713660046102be565b610131565b6040516323b872dd60e01b8152336004820152306024820152604481018290526001600160a01b038316906323b872dd906064016020604051808303816000875af11580156100c9573d6000803e3d6000fd5b505050506040513d601f19601f820116820180604052508101906100ed9190610315565b505050565b60405162461bcd60e51b815260206004820152601060248201526f1b5bd8dac81cddd85c0819985a5b195960821b604482015260640160405180910390fd5b6040516323b872dd60e01b8152336004820152306024820152604481018490526001600160a01b038616906323b872dd906064016020604051808303816000875af1158015610184573d6000803e3d6000fd5b505050506040513d601f19601f820116820180604052508101906101a89190610315565b5060405163a9059cbb60e01b81526001600160a01b0382811660048301526024820184905285169063a9059cbb906044016020604051808303816000875af11580156101f8573d6000803e3d6000fd5b505050506040513d601f19601f8201168201806040525081019061021c9190610315565b50604080516001600160a01b038381168252602082018690529181018490528186169187169033907fd6d4f5681c246c9f42c203e287975af1601f8df8035a9251f79aab5c8f09e2f89060600160405180910390a45050505050565b80356001600160a01b038116811461028f57600080fd5b919050565b600080604083850312156102a757600080fd5b6102b083610278565b946020939093013593505050565b600080600080600060a086880312156102d657600080fd5b6102df86610278565b94506102ed60208701610278565b9350604086013592506060860135915061030960808701610278565b90509295509295909350565b60006020828403121561032757600080fd5b8151801515811461033757600080fd5b939250505056fea26469706673582212209844a27b737653033a8d595b4e8692cffc0fa2d46a9d76e47ade8a34f3ee102864736f6c634300081c0033",
          "opcodes": "PUSH1 0x80 PUSH1 0x40 MSTORE CALLVALUE DUP1 ISZERO PUSH1 0xF JUMPI PUSH1 0x0 DUP1 REVERT JUMPDEST POP PUSH2 0x374 DUP1 PUSH2 0x1F PUSH1 0x0 CODECOPY PUSH1 0x0 RETURN INVALID PUSH1 0x80 PUSH1 0x40 MSTORE CALLVALUE DUP1 ISZERO PUSH2 0x10 JUMPI PUSH1 0x0 DUP1 REVERT JUMPDEST POP PUSH1 0x4 CALLDATASIZE LT PUSH2 0x41 JUMPI PUSH1 0x0 CALLDATALOAD PUSH1 0xE0 SHR DUP1 PUSH4 0x1ACA9BE7 EQ PUSH2 0x46 JUMPI DUP1 PUSH4 0xA9CC4718 EQ PUSH2 0x5B JUMPI DUP1 PUSH4 0xD5BCB9B5 EQ PUSH2 0x63 JUMPI JUMPDEST PUSH1 0x0 DUP1 REVERT JUMPDEST PUSH2 0x59 PUSH2 0x54 CALLDATASIZE PUSH1 0x4 PUSH2 0x294 JUMP JUMPDEST PUSH2 0x76 JUMP JUMPDEST STOP JUMPDEST PUSH2 0x59 PUSH2 0xF2 JUMP JUMPDEST PUSH2 0x59 PUSH2 0x71 CALLDATASIZE PUSH1 0x4 PUSH2 0x2BE JUMP JUMPDEST PUSH2 0x131 JUMP JUMPDEST PUSH1 0x40 MLOAD PUSH4 0x23B872DD PUSH1 0xE0 SHL DUP2 MSTORE CALLER PUSH1 0x4 DUP3 ADD MSTORE ADDRESS PUSH1 0x24 DUP3 ADD MSTORE PUSH1 0x44 DUP2 ADD DUP3 SWAP1 MSTORE PUSH1 0x1 PUSH1 0x1 PUSH1 0xA0 SHL SUB DUP4 AND SWAP1 PUSH4 0x23B872DD SWAP1 PUSH1 0x64 ADD PUSH1 0x20 PUSH1 0x40 MLOAD DUP1 DUP4 SUB DUP2 PUSH1 0x0 DUP8 GAS CALL ISZERO DUP1 ISZERO PUSH2 0xC9 JUMPI RETURNDATASIZE PUSH1 0x0 DUP1 RETURNDATACOPY RETURNDATASIZE PUSH1 0x0 REVERT JUMPDEST POP POP POP POP PUSH1 0x40 MLOAD RETURNDATASIZE PUSH1 0x1F NOT PUSH1 0x1F DUP3 ADD AND DUP3 ADD DUP1 PUSH1 0x40 MSTORE POP DUP2 ADD SWAP1 PUSH2 0xED SWAP2 SWAP1 PUSH2 0x315 JUMP JUMPDEST POP POP POP JUMP JUMPDEST PUSH1 0x40 MLOAD PUSH3 0x461BCD PUSH1 0xE5 SHL DUP2 MSTORE PUSH1 0x20 PUSH1 0x4 DUP3 ADD MSTORE PUSH1 0x10 PUSH1 0x24 DUP3 ADD MSTORE PUSH16 0x1B5BD8DAC81CDDD85C0819985A5B1959 PUSH1 0x82 SHL PUSH1 0x44 DUP3 ADD MSTORE PUSH1 0x64 ADD PUSH1 0x40 MLOAD DUP1 SWAP2 SUB SWAP1 REVERT JUMPDEST PUSH1 0x40 MLOAD PUSH4 0x23B872DD PUSH1 0xE0 SHL DUP2 MSTORE CALLER PUSH1 0x4 DUP3 ADD MSTORE ADDRESS PUSH1 0x24 DUP3 ADD MSTORE PUSH1 0x44 DUP2 ADD DUP5 SWAP1 MSTORE PUSH1 0x1 PUSH1 0x1 PUSH1 0xA0 SHL SUB DUP7 AND SWAP1 PUSH4 0x23B872DD SWAP1 PUSH1 0x64 ADD PUSH1 0x20 PUSH1 0x40 MLOAD DUP1 DUP4 SUB DUP2 PUSH1 0x0 DUP8 GAS CALL ISZERO DUP1 ISZERO PUSH2 0x184 JUMPI RETURNDATASIZE PUSH1 0x0 DUP1 RETURNDATACOPY RETURNDATASIZE PUSH1 0x0 REVERT JUMPDEST POP POP POP POP PUSH1 0x40 MLOAD RETURNDATASIZE PUSH1 0x1F NOT PUSH1 0x1F DUP3 ADD AND DUP3 ADD DUP1 PUSH1 0x40 MSTORE POP DUP2 ADD SWAP1 PUSH2 0x1A8 SWAP2 SWAP1 PUSH2 0x315 JUMP JUMPDEST POP PUSH1 0x40 MLOAD PUSH4 0xA9059CBB PUSH1 0xE0 SHL DUP2 MSTORE PUSH1 0x1 PUSH1 0x1 PUSH1 0xA0 SHL SUB DUP3 DUP2 AND PUSH1 0x4 DUP4 ADD MSTORE PUSH1 0x24 DUP3 ADD DUP5 SWAP1 MSTORE DUP6 AND SWAP1 PUSH4 0xA9059CBB SWAP1 PUSH1 0x44 ADD PUSH1 0x20 PUSH1 0x40 MLOAD DUP1 DUP4 SUB DUP2 PUSH1 0x0 DUP8 GAS CALL ISZERO DUP1 ISZERO PUSH2 0x1F8 JUMPI RETURNDATASIZE PUSH1 0x0 DUP1 RETURNDATACOPY RETURNDATASIZE PUSH1 0x0 REVERT JUMPDEST POP POP POP POP PUSH1 0x40 MLOAD RETURNDATASIZE PUSH1 0x1F NOT PUSH1 0x1F DUP3 ADD AND DUP3 ADD DUP1 PUSH1 0x40 MSTORE POP DUP2 ADD SWAP1 PUSH2 0x21C SWAP2 SWAP1 PUSH2 0x315 JUMP JUMPDEST POP PUSH1 0x40 DUP1 MLOAD PUSH1 0x1 PUSH1 0x1 PUSH1 0xA0 SHL SUB DUP4 DUP2 AND DUP3 MSTORE PUSH1 0x20 DUP3 ADD DUP7 SWAP1 MSTORE SWAP2 DUP2 ADD DUP5 SWAP1 MSTORE DUP2 DUP7 AND SWAP2 DUP8 AND SWAP1 CALLER SWAP1 PUSH32 0xD6D4F5681C246C9F42C203E287975AF1601F8DF8035A9251F79AAB5C8F09E2F8 SWAP1 PUSH1 0x60 ADD PUSH1 0x40 MLOAD DUP1 SWAP2 SUB SWAP1 LOG4 POP POP POP POP POP JUMP JUMPDEST DUP1 CALLDATALOAD PUSH1 0x1 PUSH1 0x1 PUSH1 0xA0 SHL SUB DUP2 AND DUP2 EQ PUSH2 0x28F JUMPI PUSH1 0x0 DUP1 REVERT JUMPDEST SWAP2 SWAP1 POP JUMP JUMPDEST PUSH1 0x0 DUP1 PUSH1 0x40 DUP4 DUP6 SUB SLT ISZERO PUSH2 0x2A7 JUMPI PUSH1 0x0 DUP1 REVERT JUMPDEST PUSH2 0x2B0 DUP4 PUSH2 0x278 JUMP JUMPDEST SWAP5 PUSH1 0x20 SWAP4 SWAP1 SWAP4 ADD CALLDATALOAD SWAP4 POP POP POP JUMP JUMPDEST PUSH1 0x0 DUP1 PUSH1 0x0 DUP1 PUSH1 0x0 PUSH1 0xA0 DUP7 DUP9 SUB SLT ISZERO PUSH2 0x2D6 JUMPI PUSH1 0x0 DUP1 REVERT JUMPDEST PUSH2 0x2DF DUP7 PUSH2 0x278 JUMP JUMPDEST SWAP5 POP PUSH2 0x2ED PUSH1 0x20 DUP8 ADD PUSH2 0x278 JUMP JUMPDEST SWAP4 POP PUSH1 0x40 DUP7 ADD CALLDATALOAD SWAP3 POP PUSH1 0x60 DUP7 ADD CALLDATALOAD SWAP2 POP PUSH2 0x309 PUSH1 0x80 DUP8 ADD PUSH2 0x278 JUMP JUMPDEST SWAP1 POP SWAP3 SWAP6 POP SWAP3 SWAP6 SWAP1 SWAP4 POP JUMP JUMPDEST PUSH1 0x0 PUSH1 0x20 DUP3 DUP5 SUB SLT ISZERO PUSH2 0x327 JUMPI PUSH1 0x0 DUP1 REVERT JUMPDEST DUP2 MLOAD DUP1 ISZERO ISZERO DUP2 EQ PUSH2 0x337 JUMPI PUSH1 0x0 DUP1 REVERT JUMPDEST SWAP4 SWAP3 POP POP POP JUMP INVALID LOG2 PUSH5 0x6970667358 0x22 SLT KECCAK256 SWAP9 PREVRANDAO LOG2 PUSH28 0x737653033A8D595B4E8692CFFC0FA2D46A9D76E47ADE8A34F3EE1028 PUSH5 0x736F6C6343 STOP ADDMOD SHR STOP CALLER "
        },
        "methodIdentifiers": {
          "drainExtra(address,uint256)": "1aca9be7",
          "fail()": "a9cc4718",
          "swap(address,address,uint256,uint256,address)": "d5bcb9b5"
        }
      }
    }
  }
}