{
  "contracts/CopByAgentRegistry.sol": {
    "CopByAgentRegistry": {
      "abi": [
        {
          "inputs": [
            {
              "internalType": "address",
              "name": "copm_",
              "type": "address"
            },
            {
              "internalType": "address",
              "name": "usdt_",
              "type": "address"
            }
          ],
          "stateMutability": "nonpayable",
          "type": "constructor"
        },
        {
          "inputs": [],
          "name": "ActiveSessionExists",
          "type": "error"
        },
        {
          "inputs": [],
          "name": "ExpiredSession",
          "type": "error"
        },
        {
          "inputs": [],
          "name": "IntentAlreadyUsed",
          "type": "error"
        },
        {
          "inputs": [],
          "name": "InvalidAgent",
          "type": "error"
        },
        {
          "inputs": [],
          "name": "InvalidAmount",
          "type": "error"
        },
        {
          "inputs": [],
          "name": "InvalidSession",
          "type": "error"
        },
        {
          "inputs": [],
          "name": "InvalidTokenPair",
          "type": "error"
        },
        {
          "inputs": [],
          "name": "InvalidUser",
          "type": "error"
        },
        {
          "inputs": [],
          "name": "NotSessionParty",
          "type": "error"
        },
        {
          "inputs": [],
          "name": "OnlyUserWallet",
          "type": "error"
        },
        {
          "inputs": [],
          "name": "SameToken",
          "type": "error"
        },
        {
          "inputs": [],
          "name": "SessionVolumeExceeded",
          "type": "error"
        },
        {
          "inputs": [],
          "name": "TradeAmountExceeded",
          "type": "error"
        },
        {
          "inputs": [],
          "name": "ZeroAddress",
          "type": "error"
        },
        {
          "inputs": [],
          "name": "ZeroLimit",
          "type": "error"
        },
        {
          "inputs": [],
          "name": "ZeroSessionId",
          "type": "error"
        },
        {
          "anonymous": false,
          "inputs": [
            {
              "indexed": true,
              "internalType": "address",
              "name": "user",
              "type": "address"
            },
            {
              "indexed": true,
              "internalType": "address",
              "name": "agent",
              "type": "address"
            },
            {
              "indexed": true,
              "internalType": "bytes32",
              "name": "sessionId",
              "type": "bytes32"
            }
          ],
          "name": "AgentSessionRevoked",
          "type": "event"
        },
        {
          "anonymous": false,
          "inputs": [
            {
              "indexed": true,
              "internalType": "address",
              "name": "user",
              "type": "address"
            },
            {
              "indexed": true,
              "internalType": "address",
              "name": "agent",
              "type": "address"
            },
            {
              "indexed": true,
              "internalType": "bytes32",
              "name": "sessionId",
              "type": "bytes32"
            },
            {
              "indexed": false,
              "internalType": "uint64",
              "name": "expiresAt",
              "type": "uint64"
            },
            {
              "indexed": false,
              "internalType": "uint256",
              "name": "maxCopmTrade",
              "type": "uint256"
            },
            {
              "indexed": false,
              "internalType": "uint256",
              "name": "maxUsdtTrade",
              "type": "uint256"
            },
            {
              "indexed": false,
              "internalType": "uint256",
              "name": "maxCopmVolume",
              "type": "uint256"
            },
            {
              "indexed": false,
              "internalType": "uint256",
              "name": "maxUsdtVolume",
              "type": "uint256"
            }
          ],
          "name": "AgentSessionStarted",
          "type": "event"
        },
        {
          "anonymous": false,
          "inputs": [
            {
              "indexed": true,
              "internalType": "address",
              "name": "user",
              "type": "address"
            },
            {
              "indexed": true,
              "internalType": "address",
              "name": "agent",
              "type": "address"
            },
            {
              "indexed": true,
              "internalType": "bytes32",
              "name": "sessionId",
              "type": "bytes32"
            },
            {
              "indexed": false,
              "internalType": "bytes32",
              "name": "intentId",
              "type": "bytes32"
            },
            {
              "indexed": false,
              "internalType": "address",
              "name": "tokenIn",
              "type": "address"
            },
            {
              "indexed": false,
              "internalType": "uint256",
              "name": "amountIn",
              "type": "uint256"
            },
            {
              "indexed": false,
              "internalType": "uint256",
              "name": "tradeNumber",
              "type": "uint256"
            }
          ],
          "name": "AgentTradeConsumed",
          "type": "event"
        },
        {
          "inputs": [],
          "name": "copm",
          "outputs": [
            {
              "internalType": "address",
              "name": "",
              "type": "address"
            }
          ],
          "stateMutability": "view",
          "type": "function"
        },
        {
          "inputs": [
            {
              "internalType": "address",
              "name": "user",
              "type": "address"
            },
            {
              "internalType": "address",
              "name": "agent",
              "type": "address"
            }
          ],
          "name": "isSessionActive",
          "outputs": [
            {
              "internalType": "bool",
              "name": "",
              "type": "bool"
            }
          ],
          "stateMutability": "view",
          "type": "function"
        },
        {
          "inputs": [
            {
              "internalType": "address",
              "name": "user",
              "type": "address"
            }
          ],
          "name": "revokeSession",
          "outputs": [],
          "stateMutability": "nonpayable",
          "type": "function"
        },
        {
          "inputs": [
            {
              "internalType": "address",
              "name": "user",
              "type": "address"
            }
          ],
          "name": "sessions",
          "outputs": [
            {
              "internalType": "address",
              "name": "agent",
              "type": "address"
            },
            {
              "internalType": "uint64",
              "name": "expiresAt",
              "type": "uint64"
            },
            {
              "internalType": "bytes32",
              "name": "sessionId",
              "type": "bytes32"
            },
            {
              "internalType": "uint256",
              "name": "maxCopmTrade",
              "type": "uint256"
            },
            {
              "internalType": "uint256",
              "name": "maxUsdtTrade",
              "type": "uint256"
            },
            {
              "internalType": "uint256",
              "name": "maxCopmVolume",
              "type": "uint256"
            },
            {
              "internalType": "uint256",
              "name": "maxUsdtVolume",
              "type": "uint256"
            },
            {
              "internalType": "uint256",
              "name": "usedCopmVolume",
              "type": "uint256"
            },
            {
              "internalType": "uint256",
              "name": "usedUsdtVolume",
              "type": "uint256"
            }
          ],
          "stateMutability": "view",
          "type": "function"
        },
        {
          "inputs": [
            {
              "internalType": "address",
              "name": "user",
              "type": "address"
            },
            {
              "internalType": "address",
              "name": "agent",
              "type": "address"
            },
            {
              "internalType": "bytes32",
              "name": "sessionId",
              "type": "bytes32"
            },
            {
              "internalType": "uint64",
              "name": "expiresAt",
              "type": "uint64"
            },
            {
              "internalType": "uint256",
              "name": "maxCopmTrade",
              "type": "uint256"
            },
            {
              "internalType": "uint256",
              "name": "maxUsdtTrade",
              "type": "uint256"
            },
            {
              "internalType": "uint256",
              "name": "maxCopmVolume",
              "type": "uint256"
            },
            {
              "internalType": "uint256",
              "name": "maxUsdtVolume",
              "type": "uint256"
            }
          ],
          "name": "startSession",
          "outputs": [],
          "stateMutability": "nonpayable",
          "type": "function"
        },
        {
          "inputs": [],
          "name": "totalTrades",
          "outputs": [
            {
              "internalType": "uint256",
              "name": "",
              "type": "uint256"
            }
          ],
          "stateMutability": "view",
          "type": "function"
        },
        {
          "inputs": [],
          "name": "usdt",
          "outputs": [
            {
              "internalType": "address",
              "name": "",
              "type": "address"
            }
          ],
          "stateMutability": "view",
          "type": "function"
        },
        {
          "inputs": [
            {
              "internalType": "bytes32",
              "name": "intentId",
              "type": "bytes32"
            }
          ],
          "name": "usedIntents",
          "outputs": [
            {
              "internalType": "bool",
              "name": "used",
              "type": "bool"
            }
          ],
          "stateMutability": "view",
          "type": "function"
        },
        {
          "inputs": [
            {
              "internalType": "address",
              "name": "user",
              "type": "address"
            },
            {
              "internalType": "address",
              "name": "agent",
              "type": "address"
            },
            {
              "internalType": "bytes32",
              "name": "sessionId",
              "type": "bytes32"
            },
            {
              "internalType": "bytes32",
              "name": "intentId",
              "type": "bytes32"
            },
            {
              "internalType": "address",
              "name": "tokenIn",
              "type": "address"
            },
            {
              "internalType": "uint256",
              "name": "amountIn",
              "type": "uint256"
            }
          ],
          "name": "validateAndConsumeTrade",
          "outputs": [
            {
              "internalType": "uint256",
              "name": "tradeNumber",
              "type": "uint256"
            }
          ],
          "stateMutability": "nonpayable",
          "type": "function"
        }
      ],
      "evm": {
        "bytecode": {
          "linkReferences": {},
          "object": "60c060405234801561001057600080fd5b50604051610e9b380380610e9b83398101604081905261002f916100cf565b6001600160a01b038216158061004c57506001600160a01b038116155b1561006a5760405163d92e233d60e01b815260040160405180910390fd5b806001600160a01b0316826001600160a01b03160361009c5760405163100dac0560e11b815260040160405180910390fd5b6001600160a01b039182166080521660a052610102565b80516001600160a01b03811681146100ca57600080fd5b919050565b600080604083850312156100e257600080fd5b6100eb836100b3565b91506100f9602084016100b3565b90509250929050565b60805160a051610d6161013a6000396000818160f601526108d801526000818160b20152818161089b01526109ca0152610d616000f3fe608060405234801561001057600080fd5b50600436106100935760003560e01c80636336803b116100665780636336803b146101d2578063b14bb91414610205578063ddc0186e14610218578063e275c9971461022b578063faa45f741461024257600080fd5b80631fa5d6a4146100985780632c3ff7b1146100ad5780632f48ab7d146100f1578063431a1b9714610118575b600080fd5b6100ab6100a6366004610b9b565b610255565b005b6100d47f000000000000000000000000000000000000000000000000000000000000000081565b6040516001600160a01b0390911681526020015b60405180910390f35b6100d47f000000000000000000000000000000000000000000000000000000000000000081565b61017c610126366004610b9b565b6001602081905260009182526040909120805491810154600282015460038301546004840154600585015460068601546007909601546001600160a01b03881697600160a01b90046001600160401b0316969089565b604080516001600160a01b03909a168a526001600160401b0390981660208a0152968801959095526060870193909352608086019190915260a085015260c084015260e0830152610100820152610120016100e8565b6101f56101e0366004610bbd565b60026020526000908152604090205460ff1681565b60405190151581526020016100e8565b6101f5610213366004610bd6565b6103d0565b6100ab610226366004610c09565b610486565b61023460005481565b6040519081526020016100e8565b610234610250366004610c88565b610793565b6001600160a01b0381811660009081526001602081815260409283902083516101208101855281549586168152600160a01b9095046001600160401b031691850191909152908101549183018290526002810154606084015260038101546080840152600481015460a0840152600581015460c0840152600681015460e0840152600701546101008301526102fd576040516316f78d3b60e11b815260040160405180910390fd5b336001600160a01b03831614801590610320575080516001600160a01b03163314155b1561033e57604051630af625f560e01b815260040160405180910390fd5b6001600160a01b03808316600081815260016020819052604080832080546001600160e01b031916815591820183905560028201839055600382018390556004820183905560058201839055600682018390556007909101829055848101518551915190949190911692917fb32f7a6d8ef16e1bda5e9c36ed76153bf67fa292311003e5a49d6d02d58ab23b91a45050565b6001600160a01b0382811660009081526001602081815260408084208151610120810183528154808816808352600160a01b9091046001600160401b03169482019490945293810154918401919091526002810154606084015260038101546080840152600481015460a0840152600581015460c0840152600681015460e0840152600701546101008301529192909190841614801561047c57504281602001516001600160401b0316115b9150505b92915050565b6001600160a01b03881615806104a357506001600160a01b038716155b156104c15760405163d92e233d60e01b815260040160405180910390fd5b856104df57604051631431024b60e01b815260040160405180910390fd5b42856001600160401b03161161050857604051639e4c31bb60e01b815260040160405180910390fd5b831580610513575082155b8061051c575081155b80610525575080155b15610543576040516396cb8a7f60e01b815260040160405180910390fd5b6001600160a01b0388811660009081526001602081815260409283902083516101208101855281549586168152600160a01b9095046001600160401b031691850182905291820154928401929092526002810154606084015260038101546080840152600481015460a0840152600581015460c0840152600681015460e0840152600701546101008301524210156105ee57604051633e85256f60e11b815260040160405180910390fd5b604051806101200160405280896001600160a01b03168152602001876001600160401b03168152602001888152602001868152602001858152602001848152602001838152602001600081526020016000815250600160008b6001600160a01b03166001600160a01b0316815260200190815260200160002060008201518160000160006101000a8154816001600160a01b0302191690836001600160a01b0316021790555060208201518160000160146101000a8154816001600160401b0302191690836001600160401b0316021790555060408201518160010155606082015181600201556080820151816003015560a0820151816004015560c0820151816005015560e08201518160060155610100820151816007015590505086886001600160a01b03168a6001600160a01b03167f2f6dbb14339d24d5b609cc48c2c389eb325c95096ab839419e87861aea114d2289898989896040516107809594939291906001600160401b03959095168552602085019390935260408401919091526060830152608082015260a00190565b60405180910390a4505050505050505050565b6000336001600160a01b038816146107be576040516333661c1560e11b815260040160405180910390fd5b6001600160a01b0387166107e55760405163fd684c3b60e01b815260040160405180910390fd5b6001600160a01b03861661080c5760405163bebdc75760e01b815260040160405180910390fd5b8461082a57604051631431024b60e01b815260040160405180910390fd5b8361084857604051631431024b60e01b815260040160405180910390fd5b816000036108695760405163162908e360e11b815260040160405180910390fd5b60008481526002602052604090205460ff16156108995760405163110ea83560e31b815260040160405180910390fd5b7f00000000000000000000000000000000000000000000000000000000000000006001600160a01b0316836001600160a01b03161415801561090d57507f00000000000000000000000000000000000000000000000000000000000000006001600160a01b0316836001600160a01b031614155b1561092b57604051638686656d60e01b815260040160405180910390fd5b6001600160a01b0387166000908152600160208190526040909120908101548614610969576040516316f78d3b60e11b815260040160405180910390fd5b80546001600160a01b038881169116146109965760405163bebdc75760e01b815260040160405180910390fd5b805442600160a01b9091046001600160401b0316116109c857604051639e4c31bb60e01b815260040160405180910390fd5b7f00000000000000000000000000000000000000000000000000000000000000006001600160a01b0316846001600160a01b031603610a79578060020154831115610a2657604051635bd7dc3f60e11b815260040160405180910390fd5b8060040154838260060154610a3b9190610cff565b1115610a5a57604051632a059ebf60e11b815260040160405180910390fd5b82816006016000828254610a6e9190610cff565b90915550610aec9050565b8060030154831115610a9e57604051635bd7dc3f60e11b815260040160405180910390fd5b8060050154838260070154610ab39190610cff565b1115610ad257604051632a059ebf60e11b815260040160405180910390fd5b82816007016000828254610ae69190610cff565b90915550505b6000858152600260205260408120805460ff1916600117905580548190610b1290610d12565b9182905550604080518781526001600160a01b038781166020830152918101869052606081018390529193508791818a16918b16907f07ff62fba983f4b65cfb646e80e420421db7d308a7d5e3dd0dc5c3b8b37e9f639060800160405180910390a4509695505050505050565b80356001600160a01b0381168114610b9657600080fd5b919050565b600060208284031215610bad57600080fd5b610bb682610b7f565b9392505050565b600060208284031215610bcf57600080fd5b5035919050565b60008060408385031215610be957600080fd5b610bf283610b7f565b9150610c0060208401610b7f565b90509250929050565b600080600080600080600080610100898b031215610c2657600080fd5b610c2f89610b7f565b9750610c3d60208a01610b7f565b96506040890135955060608901356001600160401b0381168114610c6057600080fd5b979a969950949760808101359660a0820135965060c0820135955060e0909101359350915050565b60008060008060008060c08789031215610ca157600080fd5b610caa87610b7f565b9550610cb860208801610b7f565b94506040870135935060608701359250610cd460808801610b7f565b9598949750929591949360a090920135925050565b634e487b7160e01b600052601160045260246000fd5b8082018082111561048057610480610ce9565b600060018201610d2457610d24610ce9565b506001019056fea2646970667358221220715baec2bfbb4536aea1bb8b5183cf1095406dac2251b95ff82ad183e30bcf0464736f6c634300081c0033",
          "opcodes": "PUSH1 0xC0 PUSH1 0x40 MSTORE CALLVALUE DUP1 ISZERO PUSH2 0x10 JUMPI PUSH1 0x0 DUP1 REVERT JUMPDEST POP PUSH1 0x40 MLOAD PUSH2 0xE9B CODESIZE SUB DUP1 PUSH2 0xE9B DUP4 CODECOPY DUP2 ADD PUSH1 0x40 DUP2 SWAP1 MSTORE PUSH2 0x2F SWAP2 PUSH2 0xCF JUMP JUMPDEST PUSH1 0x1 PUSH1 0x1 PUSH1 0xA0 SHL SUB DUP3 AND ISZERO DUP1 PUSH2 0x4C JUMPI POP PUSH1 0x1 PUSH1 0x1 PUSH1 0xA0 SHL SUB DUP2 AND ISZERO JUMPDEST ISZERO PUSH2 0x6A JUMPI PUSH1 0x40 MLOAD PUSH4 0xD92E233D PUSH1 0xE0 SHL DUP2 MSTORE PUSH1 0x4 ADD PUSH1 0x40 MLOAD DUP1 SWAP2 SUB SWAP1 REVERT JUMPDEST DUP1 PUSH1 0x1 PUSH1 0x1 PUSH1 0xA0 SHL SUB AND DUP3 PUSH1 0x1 PUSH1 0x1 PUSH1 0xA0 SHL SUB AND SUB PUSH2 0x9C JUMPI PUSH1 0x40 MLOAD PUSH4 0x100DAC05 PUSH1 0xE1 SHL DUP2 MSTORE PUSH1 0x4 ADD PUSH1 0x40 MLOAD DUP1 SWAP2 SUB SWAP1 REVERT JUMPDEST PUSH1 0x1 PUSH1 0x1 PUSH1 0xA0 SHL SUB SWAP2 DUP3 AND PUSH1 0x80 MSTORE AND PUSH1 0xA0 MSTORE PUSH2 0x102 JUMP JUMPDEST DUP1 MLOAD PUSH1 0x1 PUSH1 0x1 PUSH1 0xA0 SHL SUB DUP2 AND DUP2 EQ PUSH2 0xCA JUMPI PUSH1 0x0 DUP1 REVERT JUMPDEST SWAP2 SWAP1 POP JUMP JUMPDEST PUSH1 0x0 DUP1 PUSH1 0x40 DUP4 DUP6 SUB SLT ISZERO PUSH2 0xE2 JUMPI PUSH1 0x0 DUP1 REVERT JUMPDEST PUSH2 0xEB DUP4 PUSH2 0xB3 JUMP JUMPDEST SWAP2 POP PUSH2 0xF9 PUSH1 0x20 DUP5 ADD PUSH2 0xB3 JUMP JUMPDEST SWAP1 POP SWAP3 POP SWAP3 SWAP1 POP JUMP JUMPDEST PUSH1 0x80 MLOAD PUSH1 0xA0 MLOAD PUSH2 0xD61 PUSH2 0x13A PUSH1 0x0 CODECOPY PUSH1 0x0 DUP2 DUP2 PUSH1 0xF6 ADD MSTORE PUSH2 0x8D8 ADD MSTORE PUSH1 0x0 DUP2 DUP2 PUSH1 0xB2 ADD MSTORE DUP2 DUP2 PUSH2 0x89B ADD MSTORE PUSH2 0x9CA ADD MSTORE PUSH2 0xD61 PUSH1 0x0 RETURN INVALID PUSH1 0x80 PUSH1 0x40 MSTORE CALLVALUE DUP1 ISZERO PUSH2 0x10 JUMPI PUSH1 0x0 DUP1 REVERT JUMPDEST POP PUSH1 0x4 CALLDATASIZE LT PUSH2 0x93 JUMPI PUSH1 0x0 CALLDATALOAD PUSH1 0xE0 SHR DUP1 PUSH4 0x6336803B GT PUSH2 0x66 JUMPI DUP1 PUSH4 0x6336803B EQ PUSH2 0x1D2 JUMPI DUP1 PUSH4 0xB14BB914 EQ PUSH2 0x205 JUMPI DUP1 PUSH4 0xDDC0186E EQ PUSH2 0x218 JUMPI DUP1 PUSH4 0xE275C997 EQ PUSH2 0x22B JUMPI DUP1 PUSH4 0xFAA45F74 EQ PUSH2 0x242 JUMPI PUSH1 0x0 DUP1 REVERT JUMPDEST DUP1 PUSH4 0x1FA5D6A4 EQ PUSH2 0x98 JUMPI DUP1 PUSH4 0x2C3FF7B1 EQ PUSH2 0xAD JUMPI DUP1 PUSH4 0x2F48AB7D EQ PUSH2 0xF1 JUMPI DUP1 PUSH4 0x431A1B97 EQ PUSH2 0x118 JUMPI JUMPDEST PUSH1 0x0 DUP1 REVERT JUMPDEST PUSH2 0xAB PUSH2 0xA6 CALLDATASIZE PUSH1 0x4 PUSH2 0xB9B JUMP JUMPDEST PUSH2 0x255 JUMP JUMPDEST STOP JUMPDEST PUSH2 0xD4 PUSH32 0x0 DUP2 JUMP JUMPDEST PUSH1 0x40 MLOAD PUSH1 0x1 PUSH1 0x1 PUSH1 0xA0 SHL SUB SWAP1 SWAP2 AND DUP2 MSTORE PUSH1 0x20 ADD JUMPDEST PUSH1 0x40 MLOAD DUP1 SWAP2 SUB SWAP1 RETURN JUMPDEST PUSH2 0xD4 PUSH32 0x0 DUP2 JUMP JUMPDEST PUSH2 0x17C PUSH2 0x126 CALLDATASIZE PUSH1 0x4 PUSH2 0xB9B JUMP JUMPDEST PUSH1 0x1 PUSH1 0x20 DUP2 SWAP1 MSTORE PUSH1 0x0 SWAP2 DUP3 MSTORE PUSH1 0x40 SWAP1 SWAP2 KECCAK256 DUP1 SLOAD SWAP2 DUP2 ADD SLOAD PUSH1 0x2 DUP3 ADD SLOAD PUSH1 0x3 DUP4 ADD SLOAD PUSH1 0x4 DUP5 ADD SLOAD PUSH1 0x5 DUP6 ADD SLOAD PUSH1 0x6 DUP7 ADD SLOAD PUSH1 0x7 SWAP1 SWAP7 ADD SLOAD PUSH1 0x1 PUSH1 0x1 PUSH1 0xA0 SHL SUB DUP9 AND SWAP8 PUSH1 0x1 PUSH1 0xA0 SHL SWAP1 DIV PUSH1 0x1 PUSH1 0x1 PUSH1 0x40 SHL SUB AND SWAP7 SWAP1 DUP10 JUMP JUMPDEST PUSH1 0x40 DUP1 MLOAD PUSH1 0x1 PUSH1 0x1 PUSH1 0xA0 SHL SUB SWAP1 SWAP11 AND DUP11 MSTORE PUSH1 0x1 PUSH1 0x1 PUSH1 0x40 SHL SUB SWAP1 SWAP9 AND PUSH1 0x20 DUP11 ADD MSTORE SWAP7 DUP9 ADD SWAP6 SWAP1 SWAP6 MSTORE PUSH1 0x60 DUP8 ADD SWAP4 SWAP1 SWAP4 MSTORE PUSH1 0x80 DUP7 ADD SWAP2 SWAP1 SWAP2 MSTORE PUSH1 0xA0 DUP6 ADD MSTORE PUSH1 0xC0 DUP5 ADD MSTORE PUSH1 0xE0 DUP4 ADD MSTORE PUSH2 0x100 DUP3 ADD MSTORE PUSH2 0x120 ADD PUSH2 0xE8 JUMP JUMPDEST PUSH2 0x1F5 PUSH2 0x1E0 CALLDATASIZE PUSH1 0x4 PUSH2 0xBBD JUMP JUMPDEST PUSH1 0x2 PUSH1 0x20 MSTORE PUSH1 0x0 SWAP1 DUP2 MSTORE PUSH1 0x40 SWAP1 KECCAK256 SLOAD PUSH1 0xFF AND DUP2 JUMP JUMPDEST PUSH1 0x40 MLOAD SWAP1 ISZERO ISZERO DUP2 MSTORE PUSH1 0x20 ADD PUSH2 0xE8 JUMP JUMPDEST PUSH2 0x1F5 PUSH2 0x213 CALLDATASIZE PUSH1 0x4 PUSH2 0xBD6 JUMP JUMPDEST PUSH2 0x3D0 JUMP JUMPDEST PUSH2 0xAB PUSH2 0x226 CALLDATASIZE PUSH1 0x4 PUSH2 0xC09 JUMP JUMPDEST PUSH2 0x486 JUMP JUMPDEST PUSH2 0x234 PUSH1 0x0 SLOAD DUP2 JUMP JUMPDEST PUSH1 0x40 MLOAD SWAP1 DUP2 MSTORE PUSH1 0x20 ADD PUSH2 0xE8 JUMP JUMPDEST PUSH2 0x234 PUSH2 0x250 CALLDATASIZE PUSH1 0x4 PUSH2 0xC88 JUMP JUMPDEST PUSH2 0x793 JUMP JUMPDEST PUSH1 0x1 PUSH1 0x1 PUSH1 0xA0 SHL SUB DUP2 DUP2 AND PUSH1 0x0 SWAP1 DUP2 MSTORE PUSH1 0x1 PUSH1 0x20 DUP2 DUP2 MSTORE PUSH1 0x40 SWAP3 DUP4 SWAP1 KECCAK256 DUP4 MLOAD PUSH2 0x120 DUP2 ADD DUP6 MSTORE DUP2 SLOAD SWAP6 DUP7 AND DUP2 MSTORE PUSH1 0x1 PUSH1 0xA0 SHL SWAP1 SWAP6 DIV PUSH1 0x1 PUSH1 0x1 PUSH1 0x40 SHL SUB AND SWAP2 DUP6 ADD SWAP2 SWAP1 SWAP2 MSTORE SWAP1 DUP2 ADD SLOAD SWAP2 DUP4 ADD DUP3 SWAP1 MSTORE PUSH1 0x2 DUP2 ADD SLOAD PUSH1 0x60 DUP5 ADD MSTORE PUSH1 0x3 DUP2 ADD SLOAD PUSH1 0x80 DUP5 ADD MSTORE PUSH1 0x4 DUP2 ADD SLOAD PUSH1 0xA0 DUP5 ADD MSTORE PUSH1 0x5 DUP2 ADD SLOAD PUSH1 0xC0 DUP5 ADD MSTORE PUSH1 0x6 DUP2 ADD SLOAD PUSH1 0xE0 DUP5 ADD MSTORE PUSH1 0x7 ADD SLOAD PUSH2 0x100 DUP4 ADD MSTORE PUSH2 0x2FD JUMPI PUSH1 0x40 MLOAD PUSH4 0x16F78D3B PUSH1 0xE1 SHL DUP2 MSTORE PUSH1 0x4 ADD PUSH1 0x40 MLOAD DUP1 SWAP2 SUB SWAP1 REVERT JUMPDEST CALLER PUSH1 0x1 PUSH1 0x1 PUSH1 0xA0 SHL SUB DUP4 AND EQ DUP1 ISZERO SWAP1 PUSH2 0x320 JUMPI POP DUP1 MLOAD PUSH1 0x1 PUSH1 0x1 PUSH1 0xA0 SHL SUB AND CALLER EQ ISZERO JUMPDEST ISZERO PUSH2 0x33E JUMPI PUSH1 0x40 MLOAD PUSH4 0xAF625F5 PUSH1 0xE0 SHL DUP2 MSTORE PUSH1 0x4 ADD PUSH1 0x40 MLOAD DUP1 SWAP2 SUB SWAP1 REVERT JUMPDEST PUSH1 0x1 PUSH1 0x1 PUSH1 0xA0 SHL SUB DUP1 DUP4 AND PUSH1 0x0 DUP2 DUP2 MSTORE PUSH1 0x1 PUSH1 0x20 DUP2 SWAP1 MSTORE PUSH1 0x40 DUP1 DUP4 KECCAK256 DUP1 SLOAD PUSH1 0x1 PUSH1 0x1 PUSH1 0xE0 SHL SUB NOT AND DUP2 SSTORE SWAP2 DUP3 ADD DUP4 SWAP1 SSTORE PUSH1 0x2 DUP3 ADD DUP4 SWAP1 SSTORE PUSH1 0x3 DUP3 ADD DUP4 SWAP1 SSTORE PUSH1 0x4 DUP3 ADD DUP4 SWAP1 SSTORE PUSH1 0x5 DUP3 ADD DUP4 SWAP1 SSTORE PUSH1 0x6 DUP3 ADD DUP4 SWAP1 SSTORE PUSH1 0x7 SWAP1 SWAP2 ADD DUP3 SWAP1 SSTORE DUP5 DUP2 ADD MLOAD DUP6 MLOAD SWAP2 MLOAD SWAP1 SWAP5 SWAP2 SWAP1 SWAP2 AND SWAP3 SWAP2 PUSH32 0xB32F7A6D8EF16E1BDA5E9C36ED76153BF67FA292311003E5A49D6D02D58AB23B SWAP2 LOG4 POP POP JUMP JUMPDEST PUSH1 0x1 PUSH1 0x1 PUSH1 0xA0 SHL SUB DUP3 DUP2 AND PUSH1 0x0 SWAP1 DUP2 MSTORE PUSH1 0x1 PUSH1 0x20 DUP2 DUP2 MSTORE PUSH1 0x40 DUP1 DUP5 KECCAK256 DUP2 MLOAD PUSH2 0x120 DUP2 ADD DUP4 MSTORE DUP2 SLOAD DUP1 DUP9 AND DUP1 DUP4 MSTORE PUSH1 0x1 PUSH1 0xA0 SHL SWAP1 SWAP2 DIV PUSH1 0x1 PUSH1 0x1 PUSH1 0x40 SHL SUB AND SWAP5 DUP3 ADD SWAP5 SWAP1 SWAP5 MSTORE SWAP4 DUP2 ADD SLOAD SWAP2 DUP5 ADD SWAP2 SWAP1 SWAP2 MSTORE PUSH1 0x2 DUP2 ADD SLOAD PUSH1 0x60 DUP5 ADD MSTORE PUSH1 0x3 DUP2 ADD SLOAD PUSH1 0x80 DUP5 ADD MSTORE PUSH1 0x4 DUP2 ADD SLOAD PUSH1 0xA0 DUP5 ADD MSTORE PUSH1 0x5 DUP2 ADD SLOAD PUSH1 0xC0 DUP5 ADD MSTORE PUSH1 0x6 DUP2 ADD SLOAD PUSH1 0xE0 DUP5 ADD MSTORE PUSH1 0x7 ADD SLOAD PUSH2 0x100 DUP4 ADD MSTORE SWAP2 SWAP3 SWAP1 SWAP2 SWAP1 DUP5 AND EQ DUP1 ISZERO PUSH2 0x47C JUMPI POP TIMESTAMP DUP2 PUSH1 0x20 ADD MLOAD PUSH1 0x1 PUSH1 0x1 PUSH1 0x40 SHL SUB AND GT JUMPDEST SWAP2 POP POP JUMPDEST SWAP3 SWAP2 POP POP JUMP JUMPDEST PUSH1 0x1 PUSH1 0x1 PUSH1 0xA0 SHL SUB DUP9 AND ISZERO DUP1 PUSH2 0x4A3 JUMPI POP PUSH1 0x1 PUSH1 0x1 PUSH1 0xA0 SHL SUB DUP8 AND ISZERO JUMPDEST ISZERO PUSH2 0x4C1 JUMPI PUSH1 0x40 MLOAD PUSH4 0xD92E233D PUSH1 0xE0 SHL DUP2 MSTORE PUSH1 0x4 ADD PUSH1 0x40 MLOAD DUP1 SWAP2 SUB SWAP1 REVERT JUMPDEST DUP6 PUSH2 0x4DF JUMPI PUSH1 0x40 MLOAD PUSH4 0x1431024B PUSH1 0xE0 SHL DUP2 MSTORE PUSH1 0x4 ADD PUSH1 0x40 MLOAD DUP1 SWAP2 SUB SWAP1 REVERT JUMPDEST TIMESTAMP DUP6 PUSH1 0x1 PUSH1 0x1 PUSH1 0x40 SHL SUB AND GT PUSH2 0x508 JUMPI PUSH1 0x40 MLOAD PUSH4 0x9E4C31BB PUSH1 0xE0 SHL DUP2 MSTORE PUSH1 0x4 ADD PUSH1 0x40 MLOAD DUP1 SWAP2 SUB SWAP1 REVERT JUMPDEST DUP4 ISZERO DUP1 PUSH2 0x513 JUMPI POP DUP3 ISZERO JUMPDEST DUP1 PUSH2 0x51C JUMPI POP DUP2 ISZERO JUMPDEST DUP1 PUSH2 0x525 JUMPI POP DUP1 ISZERO JUMPDEST ISZERO PUSH2 0x543 JUMPI PUSH1 0x40 MLOAD PUSH4 0x96CB8A7F PUSH1 0xE0 SHL DUP2 MSTORE PUSH1 0x4 ADD PUSH1 0x40 MLOAD DUP1 SWAP2 SUB SWAP1 REVERT JUMPDEST PUSH1 0x1 PUSH1 0x1 PUSH1 0xA0 SHL SUB DUP9 DUP2 AND PUSH1 0x0 SWAP1 DUP2 MSTORE PUSH1 0x1 PUSH1 0x20 DUP2 DUP2 MSTORE PUSH1 0x40 SWAP3 DUP4 SWAP1 KECCAK256 DUP4 MLOAD PUSH2 0x120 DUP2 ADD DUP6 MSTORE DUP2 SLOAD SWAP6 DUP7 AND DUP2 MSTORE PUSH1 0x1 PUSH1 0xA0 SHL SWAP1 SWAP6 DIV PUSH1 0x1 PUSH1 0x1 PUSH1 0x40 SHL SUB AND SWAP2 DUP6 ADD DUP3 SWAP1 MSTORE SWAP2 DUP3 ADD SLOAD SWAP3 DUP5 ADD SWAP3 SWAP1 SWAP3 MSTORE PUSH1 0x2 DUP2 ADD SLOAD PUSH1 0x60 DUP5 ADD MSTORE PUSH1 0x3 DUP2 ADD SLOAD PUSH1 0x80 DUP5 ADD MSTORE PUSH1 0x4 DUP2 ADD SLOAD PUSH1 0xA0 DUP5 ADD MSTORE PUSH1 0x5 DUP2 ADD SLOAD PUSH1 0xC0 DUP5 ADD MSTORE PUSH1 0x6 DUP2 ADD SLOAD PUSH1 0xE0 DUP5 ADD MSTORE PUSH1 0x7 ADD SLOAD PUSH2 0x100 DUP4 ADD MSTORE TIMESTAMP LT ISZERO PUSH2 0x5EE JUMPI PUSH1 0x40 MLOAD PUSH4 0x3E85256F PUSH1 0xE1 SHL DUP2 MSTORE PUSH1 0x4 ADD PUSH1 0x40 MLOAD DUP1 SWAP2 SUB SWAP1 REVERT JUMPDEST PUSH1 0x40 MLOAD DUP1 PUSH2 0x120 ADD PUSH1 0x40 MSTORE DUP1 DUP10 PUSH1 0x1 PUSH1 0x1 PUSH1 0xA0 SHL SUB AND DUP2 MSTORE PUSH1 0x20 ADD DUP8 PUSH1 0x1 PUSH1 0x1 PUSH1 0x40 SHL SUB AND DUP2 MSTORE PUSH1 0x20 ADD DUP9 DUP2 MSTORE PUSH1 0x20 ADD DUP7 DUP2 MSTORE PUSH1 0x20 ADD DUP6 DUP2 MSTORE PUSH1 0x20 ADD DUP5 DUP2 MSTORE PUSH1 0x20 ADD DUP4 DUP2 MSTORE PUSH1 0x20 ADD PUSH1 0x0 DUP2 MSTORE PUSH1 0x20 ADD PUSH1 0x0 DUP2 MSTORE POP PUSH1 0x1 PUSH1 0x0 DUP12 PUSH1 0x1 PUSH1 0x1 PUSH1 0xA0 SHL SUB AND PUSH1 0x1 PUSH1 0x1 PUSH1 0xA0 SHL SUB AND DUP2 MSTORE PUSH1 0x20 ADD SWAP1 DUP2 MSTORE PUSH1 0x20 ADD PUSH1 0x0 KECCAK256 PUSH1 0x0 DUP3 ADD MLOAD DUP2 PUSH1 0x0 ADD PUSH1 0x0 PUSH2 0x100 EXP DUP2 SLOAD DUP2 PUSH1 0x1 PUSH1 0x1 PUSH1 0xA0 SHL SUB MUL NOT AND SWAP1 DUP4 PUSH1 0x1 PUSH1 0x1 PUSH1 0xA0 SHL SUB AND MUL OR SWAP1 SSTORE POP PUSH1 0x20 DUP3 ADD MLOAD DUP2 PUSH1 0x0 ADD PUSH1 0x14 PUSH2 0x100 EXP DUP2 SLOAD DUP2 PUSH1 0x1 PUSH1 0x1 PUSH1 0x40 SHL SUB MUL NOT AND SWAP1 DUP4 PUSH1 0x1 PUSH1 0x1 PUSH1 0x40 SHL SUB AND MUL OR SWAP1 SSTORE POP PUSH1 0x40 DUP3 ADD MLOAD DUP2 PUSH1 0x1 ADD SSTORE PUSH1 0x60 DUP3 ADD MLOAD DUP2 PUSH1 0x2 ADD SSTORE PUSH1 0x80 DUP3 ADD MLOAD DUP2 PUSH1 0x3 ADD SSTORE PUSH1 0xA0 DUP3 ADD MLOAD DUP2 PUSH1 0x4 ADD SSTORE PUSH1 0xC0 DUP3 ADD MLOAD DUP2 PUSH1 0x5 ADD SSTORE PUSH1 0xE0 DUP3 ADD MLOAD DUP2 PUSH1 0x6 ADD SSTORE PUSH2 0x100 DUP3 ADD MLOAD DUP2 PUSH1 0x7 ADD SSTORE SWAP1 POP POP DUP7 DUP9 PUSH1 0x1 PUSH1 0x1 PUSH1 0xA0 SHL SUB AND DUP11 PUSH1 0x1 PUSH1 0x1 PUSH1 0xA0 SHL SUB AND PUSH32 0x2F6DBB14339D24D5B609CC48C2C389EB325C95096AB839419E87861AEA114D22 DUP10 DUP10 DUP10 DUP10 DUP10 PUSH1 0x40 MLOAD PUSH2 0x780 SWAP6 SWAP5 SWAP4 SWAP3 SWAP2 SWAP1 PUSH1 0x1 PUSH1 0x1 PUSH1 0x40 SHL SUB SWAP6 SWAP1 SWAP6 AND DUP6 MSTORE PUSH1 0x20 DUP6 ADD SWAP4 SWAP1 SWAP4 MSTORE PUSH1 0x40 DUP5 ADD SWAP2 SWAP1 SWAP2 MSTORE PUSH1 0x60 DUP4 ADD MSTORE PUSH1 0x80 DUP3 ADD MSTORE PUSH1 0xA0 ADD SWAP1 JUMP JUMPDEST PUSH1 0x40 MLOAD DUP1 SWAP2 SUB SWAP1 LOG4 POP POP POP POP POP POP POP POP POP JUMP JUMPDEST PUSH1 0x0 CALLER PUSH1 0x1 PUSH1 0x1 PUSH1 0xA0 SHL SUB DUP9 AND EQ PUSH2 0x7BE JUMPI PUSH1 0x40 MLOAD PUSH4 0x33661C15 PUSH1 0xE1 SHL DUP2 MSTORE PUSH1 0x4 ADD PUSH1 0x40 MLOAD DUP1 SWAP2 SUB SWAP1 REVERT JUMPDEST PUSH1 0x1 PUSH1 0x1 PUSH1 0xA0 SHL SUB DUP8 AND PUSH2 0x7E5 JUMPI PUSH1 0x40 MLOAD PUSH4 0xFD684C3B PUSH1 0xE0 SHL DUP2 MSTORE PUSH1 0x4 ADD PUSH1 0x40 MLOAD DUP1 SWAP2 SUB SWAP1 REVERT JUMPDEST PUSH1 0x1 PUSH1 0x1 PUSH1 0xA0 SHL SUB DUP7 AND PUSH2 0x80C JUMPI PUSH1 0x40 MLOAD PUSH4 0xBEBDC757 PUSH1 0xE0 SHL DUP2 MSTORE PUSH1 0x4 ADD PUSH1 0x40 MLOAD DUP1 SWAP2 SUB SWAP1 REVERT JUMPDEST DUP5 PUSH2 0x82A JUMPI PUSH1 0x40 MLOAD PUSH4 0x1431024B PUSH1 0xE0 SHL DUP2 MSTORE PUSH1 0x4 ADD PUSH1 0x40 MLOAD DUP1 SWAP2 SUB SWAP1 REVERT JUMPDEST DUP4 PUSH2 0x848 JUMPI PUSH1 0x40 MLOAD PUSH4 0x1431024B PUSH1 0xE0 SHL DUP2 MSTORE PUSH1 0x4 ADD PUSH1 0x40 MLOAD DUP1 SWAP2 SUB SWAP1 REVERT JUMPDEST DUP2 PUSH1 0x0 SUB PUSH2 0x869 JUMPI PUSH1 0x40 MLOAD PUSH4 0x162908E3 PUSH1 0xE1 SHL DUP2 MSTORE PUSH1 0x4 ADD PUSH1 0x40 MLOAD DUP1 SWAP2 SUB SWAP1 REVERT JUMPDEST PUSH1 0x0 DUP5 DUP2 MSTORE PUSH1 0x2 PUSH1 0x20 MSTORE PUSH1 0x40 SWAP1 KECCAK256 SLOAD PUSH1 0xFF AND ISZERO PUSH2 0x899 JUMPI PUSH1 0x40 MLOAD PUSH4 0x110EA835 PUSH1 0xE3 SHL DUP2 MSTORE PUSH1 0x4 ADD PUSH1 0x40 MLOAD DUP1 SWAP2 SUB SWAP1 REVERT JUMPDEST PUSH32 0x0 PUSH1 0x1 PUSH1 0x1 PUSH1 0xA0 SHL SUB AND DUP4 PUSH1 0x1 PUSH1 0x1 PUSH1 0xA0 SHL SUB AND EQ ISZERO DUP1 ISZERO PUSH2 0x90D JUMPI POP PUSH32 0x0 PUSH1 0x1 PUSH1 0x1 PUSH1 0xA0 SHL SUB AND DUP4 PUSH1 0x1 PUSH1 0x1 PUSH1 0xA0 SHL SUB AND EQ ISZERO JUMPDEST ISZERO PUSH2 0x92B JUMPI PUSH1 0x40 MLOAD PUSH4 0x8686656D PUSH1 0xE0 SHL DUP2 MSTORE PUSH1 0x4 ADD PUSH1 0x40 MLOAD DUP1 SWAP2 SUB SWAP1 REVERT JUMPDEST PUSH1 0x1 PUSH1 0x1 PUSH1 0xA0 SHL SUB DUP8 AND PUSH1 0x0 SWAP1 DUP2 MSTORE PUSH1 0x1 PUSH1 0x20 DUP2 SWAP1 MSTORE PUSH1 0x40 SWAP1 SWAP2 KECCAK256 SWAP1 DUP2 ADD SLOAD DUP7 EQ PUSH2 0x969 JUMPI PUSH1 0x40 MLOAD PUSH4 0x16F78D3B PUSH1 0xE1 SHL DUP2 MSTORE PUSH1 0x4 ADD PUSH1 0x40 MLOAD DUP1 SWAP2 SUB SWAP1 REVERT JUMPDEST DUP1 SLOAD PUSH1 0x1 PUSH1 0x1 PUSH1 0xA0 SHL SUB DUP9 DUP2 AND SWAP2 AND EQ PUSH2 0x996 JUMPI PUSH1 0x40 MLOAD PUSH4 0xBEBDC757 PUSH1 0xE0 SHL DUP2 MSTORE PUSH1 0x4 ADD PUSH1 0x40 MLOAD DUP1 SWAP2 SUB SWAP1 REVERT JUMPDEST DUP1 SLOAD TIMESTAMP PUSH1 0x1 PUSH1 0xA0 SHL SWAP1 SWAP2 DIV PUSH1 0x1 PUSH1 0x1 PUSH1 0x40 SHL SUB AND GT PUSH2 0x9C8 JUMPI PUSH1 0x40 MLOAD PUSH4 0x9E4C31BB PUSH1 0xE0 SHL DUP2 MSTORE PUSH1 0x4 ADD PUSH1 0x40 MLOAD DUP1 SWAP2 SUB SWAP1 REVERT JUMPDEST PUSH32 0x0 PUSH1 0x1 PUSH1 0x1 PUSH1 0xA0 SHL SUB AND DUP5 PUSH1 0x1 PUSH1 0x1 PUSH1 0xA0 SHL SUB AND SUB PUSH2 0xA79 JUMPI DUP1 PUSH1 0x2 ADD SLOAD DUP4 GT ISZERO PUSH2 0xA26 JUMPI PUSH1 0x40 MLOAD PUSH4 0x5BD7DC3F PUSH1 0xE1 SHL DUP2 MSTORE PUSH1 0x4 ADD PUSH1 0x40 MLOAD DUP1 SWAP2 SUB SWAP1 REVERT JUMPDEST DUP1 PUSH1 0x4 ADD SLOAD DUP4 DUP3 PUSH1 0x6 ADD SLOAD PUSH2 0xA3B SWAP2 SWAP1 PUSH2 0xCFF JUMP JUMPDEST GT ISZERO PUSH2 0xA5A JUMPI PUSH1 0x40 MLOAD PUSH4 0x2A059EBF PUSH1 0xE1 SHL DUP2 MSTORE PUSH1 0x4 ADD PUSH1 0x40 MLOAD DUP1 SWAP2 SUB SWAP1 REVERT JUMPDEST DUP3 DUP2 PUSH1 0x6 ADD PUSH1 0x0 DUP3 DUP3 SLOAD PUSH2 0xA6E SWAP2 SWAP1 PUSH2 0xCFF JUMP JUMPDEST SWAP1 SWAP2 SSTORE POP PUSH2 0xAEC SWAP1 POP JUMP JUMPDEST DUP1 PUSH1 0x3 ADD SLOAD DUP4 GT ISZERO PUSH2 0xA9E JUMPI PUSH1 0x40 MLOAD PUSH4 0x5BD7DC3F PUSH1 0xE1 SHL DUP2 MSTORE PUSH1 0x4 ADD PUSH1 0x40 MLOAD DUP1 SWAP2 SUB SWAP1 REVERT JUMPDEST DUP1 PUSH1 0x5 ADD SLOAD DUP4 DUP3 PUSH1 0x7 ADD SLOAD PUSH2 0xAB3 SWAP2 SWAP1 PUSH2 0xCFF JUMP JUMPDEST GT ISZERO PUSH2 0xAD2 JUMPI PUSH1 0x40 MLOAD PUSH4 0x2A059EBF PUSH1 0xE1 SHL DUP2 MSTORE PUSH1 0x4 ADD PUSH1 0x40 MLOAD DUP1 SWAP2 SUB SWAP1 REVERT JUMPDEST DUP3 DUP2 PUSH1 0x7 ADD PUSH1 0x0 DUP3 DUP3 SLOAD PUSH2 0xAE6 SWAP2 SWAP1 PUSH2 0xCFF JUMP JUMPDEST SWAP1 SWAP2 SSTORE POP POP JUMPDEST PUSH1 0x0 DUP6 DUP2 MSTORE PUSH1 0x2 PUSH1 0x20 MSTORE PUSH1 0x40 DUP2 KECCAK256 DUP1 SLOAD PUSH1 0xFF NOT AND PUSH1 0x1 OR SWAP1 SSTORE DUP1 SLOAD DUP2 SWAP1 PUSH2 0xB12 SWAP1 PUSH2 0xD12 JUMP JUMPDEST SWAP2 DUP3 SWAP1 SSTORE POP PUSH1 0x40 DUP1 MLOAD DUP8 DUP2 MSTORE PUSH1 0x1 PUSH1 0x1 PUSH1 0xA0 SHL SUB DUP8 DUP2 AND PUSH1 0x20 DUP4 ADD MSTORE SWAP2 DUP2 ADD DUP7 SWAP1 MSTORE PUSH1 0x60 DUP2 ADD DUP4 SWAP1 MSTORE SWAP2 SWAP4 POP DUP8 SWAP2 DUP2 DUP11 AND SWAP2 DUP12 AND SWAP1 PUSH32 0x7FF62FBA983F4B65CFB646E80E420421DB7D308A7D5E3DD0DC5C3B8B37E9F63 SWAP1 PUSH1 0x80 ADD PUSH1 0x40 MLOAD DUP1 SWAP2 SUB SWAP1 LOG4 POP SWAP7 SWAP6 POP POP POP POP POP POP JUMP JUMPDEST DUP1 CALLDATALOAD PUSH1 0x1 PUSH1 0x1 PUSH1 0xA0 SHL SUB DUP2 AND DUP2 EQ PUSH2 0xB96 JUMPI PUSH1 0x0 DUP1 REVERT JUMPDEST SWAP2 SWAP1 POP JUMP JUMPDEST PUSH1 0x0 PUSH1 0x20 DUP3 DUP5 SUB SLT ISZERO PUSH2 0xBAD JUMPI PUSH1 0x0 DUP1 REVERT JUMPDEST PUSH2 0xBB6 DUP3 PUSH2 0xB7F JUMP JUMPDEST SWAP4 SWAP3 POP POP POP JUMP JUMPDEST PUSH1 0x0 PUSH1 0x20 DUP3 DUP5 SUB SLT ISZERO PUSH2 0xBCF JUMPI PUSH1 0x0 DUP1 REVERT JUMPDEST POP CALLDATALOAD SWAP2 SWAP1 POP JUMP JUMPDEST PUSH1 0x0 DUP1 PUSH1 0x40 DUP4 DUP6 SUB SLT ISZERO PUSH2 0xBE9 JUMPI PUSH1 0x0 DUP1 REVERT JUMPDEST PUSH2 0xBF2 DUP4 PUSH2 0xB7F JUMP JUMPDEST SWAP2 POP PUSH2 0xC00 PUSH1 0x20 DUP5 ADD PUSH2 0xB7F JUMP JUMPDEST SWAP1 POP SWAP3 POP SWAP3 SWAP1 POP JUMP JUMPDEST PUSH1 0x0 DUP1 PUSH1 0x0 DUP1 PUSH1 0x0 DUP1 PUSH1 0x0 DUP1 PUSH2 0x100 DUP10 DUP12 SUB SLT ISZERO PUSH2 0xC26 JUMPI PUSH1 0x0 DUP1 REVERT JUMPDEST PUSH2 0xC2F DUP10 PUSH2 0xB7F JUMP JUMPDEST SWAP8 POP PUSH2 0xC3D PUSH1 0x20 DUP11 ADD PUSH2 0xB7F JUMP JUMPDEST SWAP7 POP PUSH1 0x40 DUP10 ADD CALLDATALOAD SWAP6 POP PUSH1 0x60 DUP10 ADD CALLDATALOAD PUSH1 0x1 PUSH1 0x1 PUSH1 0x40 SHL SUB DUP2 AND DUP2 EQ PUSH2 0xC60 JUMPI PUSH1 0x0 DUP1 REVERT JUMPDEST SWAP8 SWAP11 SWAP7 SWAP10 POP SWAP5 SWAP8 PUSH1 0x80 DUP2 ADD CALLDATALOAD SWAP7 PUSH1 0xA0 DUP3 ADD CALLDATALOAD SWAP7 POP PUSH1 0xC0 DUP3 ADD CALLDATALOAD SWAP6 POP PUSH1 0xE0 SWAP1 SWAP2 ADD CALLDATALOAD SWAP4 POP SWAP2 POP POP JUMP JUMPDEST PUSH1 0x0 DUP1 PUSH1 0x0 DUP1 PUSH1 0x0 DUP1 PUSH1 0xC0 DUP8 DUP10 SUB SLT ISZERO PUSH2 0xCA1 JUMPI PUSH1 0x0 DUP1 REVERT JUMPDEST PUSH2 0xCAA DUP8 PUSH2 0xB7F JUMP JUMPDEST SWAP6 POP PUSH2 0xCB8 PUSH1 0x20 DUP9 ADD PUSH2 0xB7F JUMP JUMPDEST SWAP5 POP PUSH1 0x40 DUP8 ADD CALLDATALOAD SWAP4 POP PUSH1 0x60 DUP8 ADD CALLDATALOAD SWAP3 POP PUSH2 0xCD4 PUSH1 0x80 DUP9 ADD PUSH2 0xB7F JUMP JUMPDEST SWAP6 SWAP9 SWAP5 SWAP8 POP SWAP3 SWAP6 SWAP2 SWAP5 SWAP4 PUSH1 0xA0 SWAP1 SWAP3 ADD CALLDATALOAD SWAP3 POP POP JUMP JUMPDEST PUSH4 0x4E487B71 PUSH1 0xE0 SHL PUSH1 0x0 MSTORE PUSH1 0x11 PUSH1 0x4 MSTORE PUSH1 0x24 PUSH1 0x0 REVERT JUMPDEST DUP1 DUP3 ADD DUP1 DUP3 GT ISZERO PUSH2 0x480 JUMPI PUSH2 0x480 PUSH2 0xCE9 JUMP JUMPDEST PUSH1 0x0 PUSH1 0x1 DUP3 ADD PUSH2 0xD24 JUMPI PUSH2 0xD24 PUSH2 0xCE9 JUMP JUMPDEST POP PUSH1 0x1 ADD SWAP1 JUMP INVALID LOG2 PUSH5 0x6970667358 0x22 SLT KECCAK256 PUSH18 0x5BAEC2BFBB4536AEA1BB8B5183CF1095406D 0xAC 0x22 MLOAD 0xB9 PUSH0 0xF8 0x2A 0xD1 DUP4 0xE3 SIGNEXTEND 0xCF DIV PUSH5 0x736F6C6343 STOP ADDMOD SHR STOP CALLER "
        },
        "methodIdentifiers": {
          "copm()": "2c3ff7b1",
          "isSessionActive(address,address)": "b14bb914",
          "revokeSession(address)": "1fa5d6a4",
          "sessions(address)": "431a1b97",
          "startSession(address,address,bytes32,uint64,uint256,uint256,uint256,uint256)": "ddc0186e",
          "totalTrades()": "e275c997",
          "usdt()": "2f48ab7d",
          "usedIntents(bytes32)": "6336803b",
          "validateAndConsumeTrade(address,address,bytes32,bytes32,address,uint256)": "faa45f74"
        }
      }
    }
  }
}